{
	"DigitalIdentity/Proposal/MyProfile.sol": {
		"Identity": {
			"abi": [
				{
					"inputs": [
						{
							"internalType": "string",
							"name": "name",
							"type": "string"
						},
						{
							"internalType": "string",
							"name": "email",
							"type": "string"
						},
						{
							"internalType": "uint256",
							"name": "salary",
							"type": "uint256"
						},
						{
							"internalType": "string",
							"name": "_address",
							"type": "string"
						}
					],
					"stateMutability": "nonpayable",
					"type": "constructor"
				},
				{
					"inputs": [
						{
							"internalType": "address",
							"name": "user",
							"type": "address"
						},
						{
							"internalType": "enum Identity.UserType",
							"name": "userType",
							"type": "uint8"
						}
					],
					"name": "UserUnauthorized",
					"type": "error"
				},
				{
					"inputs": [],
					"name": "getBasicInfo",
					"outputs": [
						{
							"components": [
								{
									"internalType": "string",
									"name": "name",
									"type": "string"
								},
								{
									"internalType": "string",
									"name": "email",
									"type": "string"
								}
							],
							"internalType": "struct Identity.BasicInfo",
							"name": "",
							"type": "tuple"
						}
					],
					"stateMutability": "view",
					"type": "function"
				},
				{
					"inputs": [],
					"name": "getPersonalInfo",
					"outputs": [
						{
							"components": [
								{
									"internalType": "uint256",
									"name": "salary",
									"type": "uint256"
								},
								{
									"internalType": "string",
									"name": "_address",
									"type": "string"
								}
							],
							"internalType": "struct Identity.PersonalInfo",
							"name": "",
							"type": "tuple"
						}
					],
					"stateMutability": "view",
					"type": "function"
				},
				{
					"inputs": [
						{
							"internalType": "enum Identity.UserType",
							"name": "userType",
							"type": "uint8"
						},
						{
							"internalType": "address",
							"name": "user",
							"type": "address"
						}
					],
					"name": "registerUser",
					"outputs": [],
					"stateMutability": "nonpayable",
					"type": "function"
				}
			],
			"devdoc": {
				"kind": "dev",
				"methods": {},
				"version": 1
			},
			"evm": {
				"assembly": "    /* \"DigitalIdentity/Proposal/MyProfile.sol\":69:1879  contract Identity {... */\n  mstore(0x40, 0x80)\n    /* \"DigitalIdentity/Proposal/MyProfile.sol\":571:836  constructor(... */\n  callvalue\n  dup1\n  iszero\n  tag_1\n  jumpi\n  0x00\n  dup1\n  revert\ntag_1:\n  pop\n  mload(0x40)\n  sub(codesize, bytecodeSize)\n  dup1\n  bytecodeSize\n  dup4\n  codecopy\n  dup2\n  dup2\n  add\n  0x40\n  mstore\n  dup2\n  add\n  swap1\n  tag_2\n  swap2\n  swap1\n  tag_3\n  jump\t// in\ntag_2:\n    /* \"DigitalIdentity/Proposal/MyProfile.sol\":724:746  BasicInfo(name, email) */\n  mload(0x40)\n  dup1\n  0x40\n  add\n  0x40\n  mstore\n  dup1\n    /* \"DigitalIdentity/Proposal/MyProfile.sol\":734:738  name */\n  dup6\n    /* \"DigitalIdentity/Proposal/MyProfile.sol\":724:746  BasicInfo(name, email) */\n  dup2\n  mstore\n  0x20\n  add\n    /* \"DigitalIdentity/Proposal/MyProfile.sol\":740:745  email */\n  dup5\n    /* \"DigitalIdentity/Proposal/MyProfile.sol\":724:746  BasicInfo(name, email) */\n  dup2\n  mstore\n  pop\n    /* \"DigitalIdentity/Proposal/MyProfile.sol\":712:721  basicInfo */\n  0x00\n    /* \"DigitalIdentity/Proposal/MyProfile.sol\":712:746  basicInfo = BasicInfo(name, email) */\n  dup1\n  dup3\n  add\n  mload\n  dup2\n  0x00\n  add\n  swap1\n  dup2\n  tag_6\n  swap2\n  swap1\n  tag_7\n  jump\t// in\ntag_6:\n  pop\n  0x20\n  dup3\n  add\n  mload\n  dup2\n  0x01\n  add\n  swap1\n  dup2\n  tag_8\n  swap2\n  swap1\n  tag_7\n  jump\t// in\ntag_8:\n  pop\n  swap1\n  pop\n  pop\n    /* \"DigitalIdentity/Proposal/MyProfile.sol\":771:801  PersonalInfo(salary, _address) */\n  mload(0x40)\n  dup1\n  0x40\n  add\n  0x40\n  mstore\n  dup1\n    /* \"DigitalIdentity/Proposal/MyProfile.sol\":784:790  salary */\n  dup4\n    /* \"DigitalIdentity/Proposal/MyProfile.sol\":771:801  PersonalInfo(salary, _address) */\n  dup2\n  mstore\n  0x20\n  add\n    /* \"DigitalIdentity/Proposal/MyProfile.sol\":792:800  _address */\n  dup3\n    /* \"DigitalIdentity/Proposal/MyProfile.sol\":771:801  PersonalInfo(salary, _address) */\n  dup2\n  mstore\n  pop\n    /* \"DigitalIdentity/Proposal/MyProfile.sol\":756:768  personalInfo */\n  0x02\n    /* \"DigitalIdentity/Proposal/MyProfile.sol\":756:801  personalInfo = PersonalInfo(salary, _address) */\n  0x00\n  dup3\n  add\n  mload\n  dup2\n  0x00\n  add\n  sstore\n  0x20\n  dup3\n  add\n  mload\n  dup2\n  0x01\n  add\n  swap1\n  dup2\n  tag_9\n  swap2\n  swap1\n  tag_7\n  jump\t// in\ntag_9:\n  pop\n  swap1\n  pop\n  pop\n    /* \"DigitalIdentity/Proposal/MyProfile.sol\":819:829  msg.sender */\n  caller\n    /* \"DigitalIdentity/Proposal/MyProfile.sol\":811:816  owner */\n  0x04\n  0x00\n    /* \"DigitalIdentity/Proposal/MyProfile.sol\":811:829  owner = msg.sender */\n  0x0100\n  exp\n  dup2\n  sload\n  dup2\n  0xffffffffffffffffffffffffffffffffffffffff\n  mul\n  not\n  and\n  swap1\n  dup4\n  0xffffffffffffffffffffffffffffffffffffffff\n  and\n  mul\n  or\n  swap1\n  sstore\n  pop\n    /* \"DigitalIdentity/Proposal/MyProfile.sol\":571:836  constructor(... */\n  pop\n  pop\n  pop\n  pop\n    /* \"DigitalIdentity/Proposal/MyProfile.sol\":69:1879  contract Identity {... */\n  jump(tag_10)\n    /* \"#utility.yul\":7:82   */\ntag_11:\n    /* \"#utility.yul\":40:46   */\n  0x00\n    /* \"#utility.yul\":73:75   */\n  0x40\n    /* \"#utility.yul\":67:76   */\n  mload\n    /* \"#utility.yul\":57:76   */\n  swap1\n  pop\n    /* \"#utility.yul\":7:82   */\n  swap1\n  jump\t// out\n    /* \"#utility.yul\":88:205   */\ntag_12:\n    /* \"#utility.yul\":197:198   */\n  0x00\n    /* \"#utility.yul\":194:195   */\n  dup1\n    /* \"#utility.yul\":187:199   */\n  revert\n    /* \"#utility.yul\":211:328   */\ntag_13:\n    /* \"#utility.yul\":320:321   */\n  0x00\n    /* \"#utility.yul\":317:318   */\n  dup1\n    /* \"#utility.yul\":310:322   */\n  revert\n    /* \"#utility.yul\":334:451   */\ntag_14:\n    /* \"#utility.yul\":443:444   */\n  0x00\n    /* \"#utility.yul\":440:441   */\n  dup1\n    /* \"#utility.yul\":433:445   */\n  revert\n    /* \"#utility.yul\":457:574   */\ntag_15:\n    /* \"#utility.yul\":566:567   */\n  0x00\n    /* \"#utility.yul\":563:564   */\n  dup1\n    /* \"#utility.yul\":556:568   */\n  revert\n    /* \"#utility.yul\":580:682   */\ntag_16:\n    /* \"#utility.yul\":621:627   */\n  0x00\n    /* \"#utility.yul\":672:674   */\n  0x1f\n    /* \"#utility.yul\":668:675   */\n  not\n    /* \"#utility.yul\":663:665   */\n  0x1f\n    /* \"#utility.yul\":656:661   */\n  dup4\n    /* \"#utility.yul\":652:666   */\n  add\n    /* \"#utility.yul\":648:676   */\n  and\n    /* \"#utility.yul\":638:676   */\n  swap1\n  pop\n    /* \"#utility.yul\":580:682   */\n  swap2\n  swap1\n  pop\n  jump\t// out\n    /* \"#utility.yul\":688:868   */\ntag_17:\n    /* \"#utility.yul\":736:813   */\n  0x4e487b7100000000000000000000000000000000000000000000000000000000\n    /* \"#utility.yul\":733:734   */\n  0x00\n    /* \"#utility.yul\":726:814   */\n  mstore\n    /* \"#utility.yul\":833:837   */\n  0x41\n    /* \"#utility.yul\":830:831   */\n  0x04\n    /* \"#utility.yul\":823:838   */\n  mstore\n    /* \"#utility.yul\":857:861   */\n  0x24\n    /* \"#utility.yul\":854:855   */\n  0x00\n    /* \"#utility.yul\":847:862   */\n  revert\n    /* \"#utility.yul\":874:1155   */\ntag_18:\n    /* \"#utility.yul\":957:984   */\n  tag_54\n    /* \"#utility.yul\":979:983   */\n  dup3\n    /* \"#utility.yul\":957:984   */\n  tag_16\n  jump\t// in\ntag_54:\n    /* \"#utility.yul\":949:955   */\n  dup2\n    /* \"#utility.yul\":945:985   */\n  add\n    /* \"#utility.yul\":1087:1093   */\n  dup2\n    /* \"#utility.yul\":1075:1085   */\n  dup2\n    /* \"#utility.yul\":1072:1094   */\n  lt\n    /* \"#utility.yul\":1051:1069   */\n  0xffffffffffffffff\n    /* \"#utility.yul\":1039:1049   */\n  dup3\n    /* \"#utility.yul\":1036:1070   */\n  gt\n    /* \"#utility.yul\":1033:1095   */\n  or\n    /* \"#utility.yul\":1030:1118   */\n  iszero\n  tag_55\n  jumpi\n    /* \"#utility.yul\":1098:1116   */\n  tag_56\n  tag_17\n  jump\t// in\ntag_56:\n    /* \"#utility.yul\":1030:1118   */\ntag_55:\n    /* \"#utility.yul\":1138:1148   */\n  dup1\n    /* \"#utility.yul\":1134:1136   */\n  0x40\n    /* \"#utility.yul\":1127:1149   */\n  mstore\n    /* \"#utility.yul\":917:1155   */\n  pop\n    /* \"#utility.yul\":874:1155   */\n  pop\n  pop\n  jump\t// out\n    /* \"#utility.yul\":1161:1290   */\ntag_19:\n    /* \"#utility.yul\":1195:1201   */\n  0x00\n    /* \"#utility.yul\":1222:1242   */\n  tag_58\n  tag_11\n  jump\t// in\ntag_58:\n    /* \"#utility.yul\":1212:1242   */\n  swap1\n  pop\n    /* \"#utility.yul\":1251:1284   */\n  tag_59\n    /* \"#utility.yul\":1279:1283   */\n  dup3\n    /* \"#utility.yul\":1271:1277   */\n  dup3\n    /* \"#utility.yul\":1251:1284   */\n  tag_18\n  jump\t// in\ntag_59:\n    /* \"#utility.yul\":1161:1290   */\n  swap2\n  swap1\n  pop\n  jump\t// out\n    /* \"#utility.yul\":1296:1604   */\ntag_20:\n    /* \"#utility.yul\":1358:1362   */\n  0x00\n    /* \"#utility.yul\":1448:1466   */\n  0xffffffffffffffff\n    /* \"#utility.yul\":1440:1446   */\n  dup3\n    /* \"#utility.yul\":1437:1467   */\n  gt\n    /* \"#utility.yul\":1434:1490   */\n  iszero\n  tag_61\n  jumpi\n    /* \"#utility.yul\":1470:1488   */\n  tag_62\n  tag_17\n  jump\t// in\ntag_62:\n    /* \"#utility.yul\":1434:1490   */\ntag_61:\n    /* \"#utility.yul\":1508:1537   */\n  tag_63\n    /* \"#utility.yul\":1530:1536   */\n  dup3\n    /* \"#utility.yul\":1508:1537   */\n  tag_16\n  jump\t// in\ntag_63:\n    /* \"#utility.yul\":1500:1537   */\n  swap1\n  pop\n    /* \"#utility.yul\":1592:1596   */\n  0x20\n    /* \"#utility.yul\":1586:1590   */\n  dup2\n    /* \"#utility.yul\":1582:1597   */\n  add\n    /* \"#utility.yul\":1574:1597   */\n  swap1\n  pop\n    /* \"#utility.yul\":1296:1604   */\n  swap2\n  swap1\n  pop\n  jump\t// out\n    /* \"#utility.yul\":1610:1856   */\ntag_21:\n    /* \"#utility.yul\":1691:1692   */\n  0x00\n    /* \"#utility.yul\":1701:1814   */\ntag_65:\n    /* \"#utility.yul\":1715:1721   */\n  dup4\n    /* \"#utility.yul\":1712:1713   */\n  dup2\n    /* \"#utility.yul\":1709:1722   */\n  lt\n    /* \"#utility.yul\":1701:1814   */\n  iszero\n  tag_67\n  jumpi\n    /* \"#utility.yul\":1800:1801   */\n  dup1\n    /* \"#utility.yul\":1795:1798   */\n  dup3\n    /* \"#utility.yul\":1791:1802   */\n  add\n    /* \"#utility.yul\":1785:1803   */\n  mload\n    /* \"#utility.yul\":1781:1782   */\n  dup2\n    /* \"#utility.yul\":1776:1779   */\n  dup5\n    /* \"#utility.yul\":1772:1783   */\n  add\n    /* \"#utility.yul\":1765:1804   */\n  mstore\n    /* \"#utility.yul\":1737:1739   */\n  0x20\n    /* \"#utility.yul\":1734:1735   */\n  dup2\n    /* \"#utility.yul\":1730:1740   */\n  add\n    /* \"#utility.yul\":1725:1740   */\n  swap1\n  pop\n    /* \"#utility.yul\":1701:1814   */\n  jump(tag_65)\ntag_67:\n    /* \"#utility.yul\":1848:1849   */\n  0x00\n    /* \"#utility.yul\":1839:1845   */\n  dup5\n    /* \"#utility.yul\":1834:1837   */\n  dup5\n    /* \"#utility.yul\":1830:1846   */\n  add\n    /* \"#utility.yul\":1823:1850   */\n  mstore\n    /* \"#utility.yul\":1672:1856   */\n  pop\n    /* \"#utility.yul\":1610:1856   */\n  pop\n  pop\n  pop\n  jump\t// out\n    /* \"#utility.yul\":1862:2296   */\ntag_22:\n    /* \"#utility.yul\":1951:1956   */\n  0x00\n    /* \"#utility.yul\":1976:2042   */\n  tag_69\n    /* \"#utility.yul\":1992:2041   */\n  tag_70\n    /* \"#utility.yul\":2034:2040   */\n  dup5\n    /* \"#utility.yul\":1992:2041   */\n  tag_20\n  jump\t// in\ntag_70:\n    /* \"#utility.yul\":1976:2042   */\n  tag_19\n  jump\t// in\ntag_69:\n    /* \"#utility.yul\":1967:2042   */\n  swap1\n  pop\n    /* \"#utility.yul\":2065:2071   */\n  dup3\n    /* \"#utility.yul\":2058:2063   */\n  dup2\n    /* \"#utility.yul\":2051:2072   */\n  mstore\n    /* \"#utility.yul\":2103:2107   */\n  0x20\n    /* \"#utility.yul\":2096:2101   */\n  dup2\n    /* \"#utility.yul\":2092:2108   */\n  add\n    /* \"#utility.yul\":2141:2144   */\n  dup5\n    /* \"#utility.yul\":2132:2138   */\n  dup5\n    /* \"#utility.yul\":2127:2130   */\n  dup5\n    /* \"#utility.yul\":2123:2139   */\n  add\n    /* \"#utility.yul\":2120:2145   */\n  gt\n    /* \"#utility.yul\":2117:2229   */\n  iszero\n  tag_71\n  jumpi\n    /* \"#utility.yul\":2148:2227   */\n  tag_72\n  tag_15\n  jump\t// in\ntag_72:\n    /* \"#utility.yul\":2117:2229   */\ntag_71:\n    /* \"#utility.yul\":2238:2290   */\n  tag_73\n    /* \"#utility.yul\":2283:2289   */\n  dup5\n    /* \"#utility.yul\":2278:2281   */\n  dup3\n    /* \"#utility.yul\":2273:2276   */\n  dup6\n    /* \"#utility.yul\":2238:2290   */\n  tag_21\n  jump\t// in\ntag_73:\n    /* \"#utility.yul\":1957:2296   */\n  pop\n    /* \"#utility.yul\":1862:2296   */\n  swap4\n  swap3\n  pop\n  pop\n  pop\n  jump\t// out\n    /* \"#utility.yul\":2316:2671   */\ntag_23:\n    /* \"#utility.yul\":2383:2388   */\n  0x00\n    /* \"#utility.yul\":2432:2435   */\n  dup3\n    /* \"#utility.yul\":2425:2429   */\n  0x1f\n    /* \"#utility.yul\":2417:2423   */\n  dup4\n    /* \"#utility.yul\":2413:2430   */\n  add\n    /* \"#utility.yul\":2409:2436   */\n  slt\n    /* \"#utility.yul\":2399:2521   */\n  tag_75\n  jumpi\n    /* \"#utility.yul\":2440:2519   */\n  tag_76\n  tag_14\n  jump\t// in\ntag_76:\n    /* \"#utility.yul\":2399:2521   */\ntag_75:\n    /* \"#utility.yul\":2550:2556   */\n  dup2\n    /* \"#utility.yul\":2544:2557   */\n  mload\n    /* \"#utility.yul\":2575:2665   */\n  tag_77\n    /* \"#utility.yul\":2661:2664   */\n  dup5\n    /* \"#utility.yul\":2653:2659   */\n  dup3\n    /* \"#utility.yul\":2646:2650   */\n  0x20\n    /* \"#utility.yul\":2638:2644   */\n  dup7\n    /* \"#utility.yul\":2634:2651   */\n  add\n    /* \"#utility.yul\":2575:2665   */\n  tag_22\n  jump\t// in\ntag_77:\n    /* \"#utility.yul\":2566:2665   */\n  swap2\n  pop\n    /* \"#utility.yul\":2389:2671   */\n  pop\n    /* \"#utility.yul\":2316:2671   */\n  swap3\n  swap2\n  pop\n  pop\n  jump\t// out\n    /* \"#utility.yul\":2677:2754   */\ntag_24:\n    /* \"#utility.yul\":2714:2721   */\n  0x00\n    /* \"#utility.yul\":2743:2748   */\n  dup2\n    /* \"#utility.yul\":2732:2748   */\n  swap1\n  pop\n    /* \"#utility.yul\":2677:2754   */\n  swap2\n  swap1\n  pop\n  jump\t// out\n    /* \"#utility.yul\":2760:2882   */\ntag_25:\n    /* \"#utility.yul\":2833:2857   */\n  tag_80\n    /* \"#utility.yul\":2851:2856   */\n  dup2\n    /* \"#utility.yul\":2833:2857   */\n  tag_24\n  jump\t// in\ntag_80:\n    /* \"#utility.yul\":2826:2831   */\n  dup2\n    /* \"#utility.yul\":2823:2858   */\n  eq\n    /* \"#utility.yul\":2813:2876   */\n  tag_81\n  jumpi\n    /* \"#utility.yul\":2872:2873   */\n  0x00\n    /* \"#utility.yul\":2869:2870   */\n  dup1\n    /* \"#utility.yul\":2862:2874   */\n  revert\n    /* \"#utility.yul\":2813:2876   */\ntag_81:\n    /* \"#utility.yul\":2760:2882   */\n  pop\n  jump\t// out\n    /* \"#utility.yul\":2888:3031   */\ntag_26:\n    /* \"#utility.yul\":2945:2950   */\n  0x00\n    /* \"#utility.yul\":2976:2982   */\n  dup2\n    /* \"#utility.yul\":2970:2983   */\n  mload\n    /* \"#utility.yul\":2961:2983   */\n  swap1\n  pop\n    /* \"#utility.yul\":2992:3025   */\n  tag_83\n    /* \"#utility.yul\":3019:3024   */\n  dup2\n    /* \"#utility.yul\":2992:3025   */\n  tag_25\n  jump\t// in\ntag_83:\n    /* \"#utility.yul\":2888:3031   */\n  swap3\n  swap2\n  pop\n  pop\n  jump\t// out\n    /* \"#utility.yul\":3037:4376   */\ntag_3:\n    /* \"#utility.yul\":3164:3170   */\n  0x00\n    /* \"#utility.yul\":3172:3178   */\n  dup1\n    /* \"#utility.yul\":3180:3186   */\n  0x00\n    /* \"#utility.yul\":3188:3194   */\n  dup1\n    /* \"#utility.yul\":3237:3240   */\n  0x80\n    /* \"#utility.yul\":3225:3234   */\n  dup6\n    /* \"#utility.yul\":3216:3223   */\n  dup8\n    /* \"#utility.yul\":3212:3235   */\n  sub\n    /* \"#utility.yul\":3208:3241   */\n  slt\n    /* \"#utility.yul\":3205:3325   */\n  iszero\n  tag_85\n  jumpi\n    /* \"#utility.yul\":3244:3323   */\n  tag_86\n  tag_12\n  jump\t// in\ntag_86:\n    /* \"#utility.yul\":3205:3325   */\ntag_85:\n    /* \"#utility.yul\":3385:3386   */\n  0x00\n    /* \"#utility.yul\":3374:3383   */\n  dup6\n    /* \"#utility.yul\":3370:3387   */\n  add\n    /* \"#utility.yul\":3364:3388   */\n  mload\n    /* \"#utility.yul\":3415:3433   */\n  0xffffffffffffffff\n    /* \"#utility.yul\":3407:3413   */\n  dup2\n    /* \"#utility.yul\":3404:3434   */\n  gt\n    /* \"#utility.yul\":3401:3518   */\n  iszero\n  tag_87\n  jumpi\n    /* \"#utility.yul\":3437:3516   */\n  tag_88\n  tag_13\n  jump\t// in\ntag_88:\n    /* \"#utility.yul\":3401:3518   */\ntag_87:\n    /* \"#utility.yul\":3542:3616   */\n  tag_89\n    /* \"#utility.yul\":3608:3615   */\n  dup8\n    /* \"#utility.yul\":3599:3605   */\n  dup3\n    /* \"#utility.yul\":3588:3597   */\n  dup9\n    /* \"#utility.yul\":3584:3606   */\n  add\n    /* \"#utility.yul\":3542:3616   */\n  tag_23\n  jump\t// in\ntag_89:\n    /* \"#utility.yul\":3532:3616   */\n  swap5\n  pop\n    /* \"#utility.yul\":3335:3626   */\n  pop\n    /* \"#utility.yul\":3686:3688   */\n  0x20\n    /* \"#utility.yul\":3675:3684   */\n  dup6\n    /* \"#utility.yul\":3671:3689   */\n  add\n    /* \"#utility.yul\":3665:3690   */\n  mload\n    /* \"#utility.yul\":3717:3735   */\n  0xffffffffffffffff\n    /* \"#utility.yul\":3709:3715   */\n  dup2\n    /* \"#utility.yul\":3706:3736   */\n  gt\n    /* \"#utility.yul\":3703:3820   */\n  iszero\n  tag_90\n  jumpi\n    /* \"#utility.yul\":3739:3818   */\n  tag_91\n  tag_13\n  jump\t// in\ntag_91:\n    /* \"#utility.yul\":3703:3820   */\ntag_90:\n    /* \"#utility.yul\":3844:3918   */\n  tag_92\n    /* \"#utility.yul\":3910:3917   */\n  dup8\n    /* \"#utility.yul\":3901:3907   */\n  dup3\n    /* \"#utility.yul\":3890:3899   */\n  dup9\n    /* \"#utility.yul\":3886:3908   */\n  add\n    /* \"#utility.yul\":3844:3918   */\n  tag_23\n  jump\t// in\ntag_92:\n    /* \"#utility.yul\":3834:3918   */\n  swap4\n  pop\n    /* \"#utility.yul\":3636:3928   */\n  pop\n    /* \"#utility.yul\":3967:3969   */\n  0x40\n    /* \"#utility.yul\":3993:4057   */\n  tag_93\n    /* \"#utility.yul\":4049:4056   */\n  dup8\n    /* \"#utility.yul\":4040:4046   */\n  dup3\n    /* \"#utility.yul\":4029:4038   */\n  dup9\n    /* \"#utility.yul\":4025:4047   */\n  add\n    /* \"#utility.yul\":3993:4057   */\n  tag_26\n  jump\t// in\ntag_93:\n    /* \"#utility.yul\":3983:4057   */\n  swap3\n  pop\n    /* \"#utility.yul\":3938:4067   */\n  pop\n    /* \"#utility.yul\":4127:4129   */\n  0x60\n    /* \"#utility.yul\":4116:4125   */\n  dup6\n    /* \"#utility.yul\":4112:4130   */\n  add\n    /* \"#utility.yul\":4106:4131   */\n  mload\n    /* \"#utility.yul\":4158:4176   */\n  0xffffffffffffffff\n    /* \"#utility.yul\":4150:4156   */\n  dup2\n    /* \"#utility.yul\":4147:4177   */\n  gt\n    /* \"#utility.yul\":4144:4261   */\n  iszero\n  tag_94\n  jumpi\n    /* \"#utility.yul\":4180:4259   */\n  tag_95\n  tag_13\n  jump\t// in\ntag_95:\n    /* \"#utility.yul\":4144:4261   */\ntag_94:\n    /* \"#utility.yul\":4285:4359   */\n  tag_96\n    /* \"#utility.yul\":4351:4358   */\n  dup8\n    /* \"#utility.yul\":4342:4348   */\n  dup3\n    /* \"#utility.yul\":4331:4340   */\n  dup9\n    /* \"#utility.yul\":4327:4349   */\n  add\n    /* \"#utility.yul\":4285:4359   */\n  tag_23\n  jump\t// in\ntag_96:\n    /* \"#utility.yul\":4275:4359   */\n  swap2\n  pop\n    /* \"#utility.yul\":4077:4369   */\n  pop\n    /* \"#utility.yul\":3037:4376   */\n  swap3\n  swap6\n  swap2\n  swap5\n  pop\n  swap3\n  pop\n  jump\t// out\n    /* \"#utility.yul\":4382:4481   */\ntag_27:\n    /* \"#utility.yul\":4434:4440   */\n  0x00\n    /* \"#utility.yul\":4468:4473   */\n  dup2\n    /* \"#utility.yul\":4462:4474   */\n  mload\n    /* \"#utility.yul\":4452:4474   */\n  swap1\n  pop\n    /* \"#utility.yul\":4382:4481   */\n  swap2\n  swap1\n  pop\n  jump\t// out\n    /* \"#utility.yul\":4487:4667   */\ntag_28:\n    /* \"#utility.yul\":4535:4612   */\n  0x4e487b7100000000000000000000000000000000000000000000000000000000\n    /* \"#utility.yul\":4532:4533   */\n  0x00\n    /* \"#utility.yul\":4525:4613   */\n  mstore\n    /* \"#utility.yul\":4632:4636   */\n  0x22\n    /* \"#utility.yul\":4629:4630   */\n  0x04\n    /* \"#utility.yul\":4622:4637   */\n  mstore\n    /* \"#utility.yul\":4656:4660   */\n  0x24\n    /* \"#utility.yul\":4653:4654   */\n  0x00\n    /* \"#utility.yul\":4646:4661   */\n  revert\n    /* \"#utility.yul\":4673:4993   */\ntag_29:\n    /* \"#utility.yul\":4717:4723   */\n  0x00\n    /* \"#utility.yul\":4754:4755   */\n  0x02\n    /* \"#utility.yul\":4748:4752   */\n  dup3\n    /* \"#utility.yul\":4744:4756   */\n  div\n    /* \"#utility.yul\":4734:4756   */\n  swap1\n  pop\n    /* \"#utility.yul\":4801:4802   */\n  0x01\n    /* \"#utility.yul\":4795:4799   */\n  dup3\n    /* \"#utility.yul\":4791:4803   */\n  and\n    /* \"#utility.yul\":4822:4840   */\n  dup1\n    /* \"#utility.yul\":4812:4893   */\n  tag_100\n  jumpi\n    /* \"#utility.yul\":4878:4882   */\n  0x7f\n    /* \"#utility.yul\":4870:4876   */\n  dup3\n    /* \"#utility.yul\":4866:4883   */\n  and\n    /* \"#utility.yul\":4856:4883   */\n  swap2\n  pop\n    /* \"#utility.yul\":4812:4893   */\ntag_100:\n    /* \"#utility.yul\":4940:4942   */\n  0x20\n    /* \"#utility.yul\":4932:4938   */\n  dup3\n    /* \"#utility.yul\":4929:4943   */\n  lt\n    /* \"#utility.yul\":4909:4927   */\n  dup2\n    /* \"#utility.yul\":4906:4944   */\n  sub\n    /* \"#utility.yul\":4903:4987   */\n  tag_101\n  jumpi\n    /* \"#utility.yul\":4959:4977   */\n  tag_102\n  tag_28\n  jump\t// in\ntag_102:\n    /* \"#utility.yul\":4903:4987   */\ntag_101:\n    /* \"#utility.yul\":4724:4993   */\n  pop\n    /* \"#utility.yul\":4673:4993   */\n  swap2\n  swap1\n  pop\n  jump\t// out\n    /* \"#utility.yul\":4999:5140   */\ntag_30:\n    /* \"#utility.yul\":5048:5052   */\n  0x00\n    /* \"#utility.yul\":5071:5074   */\n  dup2\n    /* \"#utility.yul\":5063:5074   */\n  swap1\n  pop\n    /* \"#utility.yul\":5094:5097   */\n  dup2\n    /* \"#utility.yul\":5091:5092   */\n  0x00\n    /* \"#utility.yul\":5084:5098   */\n  mstore\n    /* \"#utility.yul\":5128:5132   */\n  0x20\n    /* \"#utility.yul\":5125:5126   */\n  0x00\n    /* \"#utility.yul\":5115:5133   */\n  keccak256\n    /* \"#utility.yul\":5107:5133   */\n  swap1\n  pop\n    /* \"#utility.yul\":4999:5140   */\n  swap2\n  swap1\n  pop\n  jump\t// out\n    /* \"#utility.yul\":5146:5239   */\ntag_31:\n    /* \"#utility.yul\":5183:5189   */\n  0x00\n    /* \"#utility.yul\":5230:5232   */\n  0x20\n    /* \"#utility.yul\":5225:5227   */\n  0x1f\n    /* \"#utility.yul\":5218:5223   */\n  dup4\n    /* \"#utility.yul\":5214:5228   */\n  add\n    /* \"#utility.yul\":5210:5233   */\n  div\n    /* \"#utility.yul\":5200:5233   */\n  swap1\n  pop\n    /* \"#utility.yul\":5146:5239   */\n  swap2\n  swap1\n  pop\n  jump\t// out\n    /* \"#utility.yul\":5245:5352   */\ntag_32:\n    /* \"#utility.yul\":5289:5297   */\n  0x00\n    /* \"#utility.yul\":5339:5344   */\n  dup3\n    /* \"#utility.yul\":5333:5337   */\n  dup3\n    /* \"#utility.yul\":5329:5345   */\n  shl\n    /* \"#utility.yul\":5308:5345   */\n  swap1\n  pop\n    /* \"#utility.yul\":5245:5352   */\n  swap3\n  swap2\n  pop\n  pop\n  jump\t// out\n    /* \"#utility.yul\":5358:5751   */\ntag_33:\n    /* \"#utility.yul\":5427:5433   */\n  0x00\n    /* \"#utility.yul\":5477:5478   */\n  0x08\n    /* \"#utility.yul\":5465:5475   */\n  dup4\n    /* \"#utility.yul\":5461:5479   */\n  mul\n    /* \"#utility.yul\":5500:5597   */\n  tag_107\n    /* \"#utility.yul\":5530:5596   */\n  0xffffffffffffffffffffffffffffffffffffffffffffffffffffffffffffffff\n    /* \"#utility.yul\":5519:5528   */\n  dup3\n    /* \"#utility.yul\":5500:5597   */\n  tag_32\n  jump\t// in\ntag_107:\n    /* \"#utility.yul\":5618:5657   */\n  tag_108\n    /* \"#utility.yul\":5648:5656   */\n  dup7\n    /* \"#utility.yul\":5637:5646   */\n  dup4\n    /* \"#utility.yul\":5618:5657   */\n  tag_32\n  jump\t// in\ntag_108:\n    /* \"#utility.yul\":5606:5657   */\n  swap6\n  pop\n    /* \"#utility.yul\":5690:5694   */\n  dup1\n    /* \"#utility.yul\":5686:5695   */\n  not\n    /* \"#utility.yul\":5679:5684   */\n  dup5\n    /* \"#utility.yul\":5675:5696   */\n  and\n    /* \"#utility.yul\":5666:5696   */\n  swap4\n  pop\n    /* \"#utility.yul\":5739:5743   */\n  dup1\n    /* \"#utility.yul\":5729:5737   */\n  dup7\n    /* \"#utility.yul\":5725:5744   */\n  and\n    /* \"#utility.yul\":5718:5723   */\n  dup5\n    /* \"#utility.yul\":5715:5745   */\n  or\n    /* \"#utility.yul\":5705:5745   */\n  swap3\n  pop\n    /* \"#utility.yul\":5434:5751   */\n  pop\n  pop\n    /* \"#utility.yul\":5358:5751   */\n  swap4\n  swap3\n  pop\n  pop\n  pop\n  jump\t// out\n    /* \"#utility.yul\":5757:5817   */\ntag_34:\n    /* \"#utility.yul\":5785:5788   */\n  0x00\n    /* \"#utility.yul\":5806:5811   */\n  dup2\n    /* \"#utility.yul\":5799:5811   */\n  swap1\n  pop\n    /* \"#utility.yul\":5757:5817   */\n  swap2\n  swap1\n  pop\n  jump\t// out\n    /* \"#utility.yul\":5823:5965   */\ntag_35:\n    /* \"#utility.yul\":5873:5882   */\n  0x00\n    /* \"#utility.yul\":5906:5959   */\n  tag_111\n    /* \"#utility.yul\":5924:5958   */\n  tag_112\n    /* \"#utility.yul\":5933:5957   */\n  tag_113\n    /* \"#utility.yul\":5951:5956   */\n  dup5\n    /* \"#utility.yul\":5933:5957   */\n  tag_24\n  jump\t// in\ntag_113:\n    /* \"#utility.yul\":5924:5958   */\n  tag_34\n  jump\t// in\ntag_112:\n    /* \"#utility.yul\":5906:5959   */\n  tag_24\n  jump\t// in\ntag_111:\n    /* \"#utility.yul\":5893:5959   */\n  swap1\n  pop\n    /* \"#utility.yul\":5823:5965   */\n  swap2\n  swap1\n  pop\n  jump\t// out\n    /* \"#utility.yul\":5971:6046   */\ntag_36:\n    /* \"#utility.yul\":6014:6017   */\n  0x00\n    /* \"#utility.yul\":6035:6040   */\n  dup2\n    /* \"#utility.yul\":6028:6040   */\n  swap1\n  pop\n    /* \"#utility.yul\":5971:6046   */\n  swap2\n  swap1\n  pop\n  jump\t// out\n    /* \"#utility.yul\":6052:6321   */\ntag_37:\n    /* \"#utility.yul\":6162:6201   */\n  tag_116\n    /* \"#utility.yul\":6193:6200   */\n  dup4\n    /* \"#utility.yul\":6162:6201   */\n  tag_35\n  jump\t// in\ntag_116:\n    /* \"#utility.yul\":6223:6314   */\n  tag_117\n    /* \"#utility.yul\":6272:6313   */\n  tag_118\n    /* \"#utility.yul\":6296:6312   */\n  dup3\n    /* \"#utility.yul\":6272:6313   */\n  tag_36\n  jump\t// in\ntag_118:\n    /* \"#utility.yul\":6264:6270   */\n  dup5\n    /* \"#utility.yul\":6257:6261   */\n  dup5\n    /* \"#utility.yul\":6251:6262   */\n  sload\n    /* \"#utility.yul\":6223:6314   */\n  tag_33\n  jump\t// in\ntag_117:\n    /* \"#utility.yul\":6217:6221   */\n  dup3\n    /* \"#utility.yul\":6210:6315   */\n  sstore\n    /* \"#utility.yul\":6128:6321   */\n  pop\n    /* \"#utility.yul\":6052:6321   */\n  pop\n  pop\n  pop\n  jump\t// out\n    /* \"#utility.yul\":6327:6400   */\ntag_38:\n    /* \"#utility.yul\":6372:6375   */\n  0x00\n    /* \"#utility.yul\":6327:6400   */\n  swap1\n  jump\t// out\n    /* \"#utility.yul\":6406:6595   */\ntag_39:\n    /* \"#utility.yul\":6483:6515   */\n  tag_121\n  tag_38\n  jump\t// in\ntag_121:\n    /* \"#utility.yul\":6524:6589   */\n  tag_122\n    /* \"#utility.yul\":6582:6588   */\n  dup2\n    /* \"#utility.yul\":6574:6580   */\n  dup5\n    /* \"#utility.yul\":6568:6572   */\n  dup5\n    /* \"#utility.yul\":6524:6589   */\n  tag_37\n  jump\t// in\ntag_122:\n    /* \"#utility.yul\":6459:6595   */\n  pop\n    /* \"#utility.yul\":6406:6595   */\n  pop\n  pop\n  jump\t// out\n    /* \"#utility.yul\":6601:6787   */\ntag_40:\n    /* \"#utility.yul\":6661:6781   */\ntag_124:\n    /* \"#utility.yul\":6678:6681   */\n  dup2\n    /* \"#utility.yul\":6671:6676   */\n  dup2\n    /* \"#utility.yul\":6668:6682   */\n  lt\n    /* \"#utility.yul\":6661:6781   */\n  iszero\n  tag_126\n  jumpi\n    /* \"#utility.yul\":6732:6771   */\n  tag_127\n    /* \"#utility.yul\":6769:6770   */\n  0x00\n    /* \"#utility.yul\":6762:6767   */\n  dup3\n    /* \"#utility.yul\":6732:6771   */\n  tag_39\n  jump\t// in\ntag_127:\n    /* \"#utility.yul\":6705:6706   */\n  0x01\n    /* \"#utility.yul\":6698:6703   */\n  dup2\n    /* \"#utility.yul\":6694:6707   */\n  add\n    /* \"#utility.yul\":6685:6707   */\n  swap1\n  pop\n    /* \"#utility.yul\":6661:6781   */\n  jump(tag_124)\ntag_126:\n    /* \"#utility.yul\":6601:6787   */\n  pop\n  pop\n  jump\t// out\n    /* \"#utility.yul\":6793:7336   */\ntag_41:\n    /* \"#utility.yul\":6894:6896   */\n  0x1f\n    /* \"#utility.yul\":6889:6892   */\n  dup3\n    /* \"#utility.yul\":6886:6897   */\n  gt\n    /* \"#utility.yul\":6883:7329   */\n  iszero\n  tag_129\n  jumpi\n    /* \"#utility.yul\":6928:6966   */\n  tag_130\n    /* \"#utility.yul\":6960:6965   */\n  dup2\n    /* \"#utility.yul\":6928:6966   */\n  tag_30\n  jump\t// in\ntag_130:\n    /* \"#utility.yul\":7012:7041   */\n  tag_131\n    /* \"#utility.yul\":7030:7040   */\n  dup5\n    /* \"#utility.yul\":7012:7041   */\n  tag_31\n  jump\t// in\ntag_131:\n    /* \"#utility.yul\":7002:7010   */\n  dup2\n    /* \"#utility.yul\":6998:7042   */\n  add\n    /* \"#utility.yul\":7195:7197   */\n  0x20\n    /* \"#utility.yul\":7183:7193   */\n  dup6\n    /* \"#utility.yul\":7180:7198   */\n  lt\n    /* \"#utility.yul\":7177:7226   */\n  iszero\n  tag_132\n  jumpi\n    /* \"#utility.yul\":7216:7224   */\n  dup2\n    /* \"#utility.yul\":7201:7224   */\n  swap1\n  pop\n    /* \"#utility.yul\":7177:7226   */\ntag_132:\n    /* \"#utility.yul\":7239:7319   */\n  tag_133\n    /* \"#utility.yul\":7295:7317   */\n  tag_134\n    /* \"#utility.yul\":7313:7316   */\n  dup6\n    /* \"#utility.yul\":7295:7317   */\n  tag_31\n  jump\t// in\ntag_134:\n    /* \"#utility.yul\":7285:7293   */\n  dup4\n    /* \"#utility.yul\":7281:7318   */\n  add\n    /* \"#utility.yul\":7268:7279   */\n  dup3\n    /* \"#utility.yul\":7239:7319   */\n  tag_40\n  jump\t// in\ntag_133:\n    /* \"#utility.yul\":6898:7329   */\n  pop\n  pop\n    /* \"#utility.yul\":6883:7329   */\ntag_129:\n    /* \"#utility.yul\":6793:7336   */\n  pop\n  pop\n  pop\n  jump\t// out\n    /* \"#utility.yul\":7342:7459   */\ntag_42:\n    /* \"#utility.yul\":7396:7404   */\n  0x00\n    /* \"#utility.yul\":7446:7451   */\n  dup3\n    /* \"#utility.yul\":7440:7444   */\n  dup3\n    /* \"#utility.yul\":7436:7452   */\n  shr\n    /* \"#utility.yul\":7415:7452   */\n  swap1\n  pop\n    /* \"#utility.yul\":7342:7459   */\n  swap3\n  swap2\n  pop\n  pop\n  jump\t// out\n    /* \"#utility.yul\":7465:7634   */\ntag_43:\n    /* \"#utility.yul\":7509:7515   */\n  0x00\n    /* \"#utility.yul\":7542:7593   */\n  tag_137\n    /* \"#utility.yul\":7590:7591   */\n  0x00\n    /* \"#utility.yul\":7586:7592   */\n  not\n    /* \"#utility.yul\":7578:7583   */\n  dup5\n    /* \"#utility.yul\":7575:7576   */\n  0x08\n    /* \"#utility.yul\":7571:7584   */\n  mul\n    /* \"#utility.yul\":7542:7593   */\n  tag_42\n  jump\t// in\ntag_137:\n    /* \"#utility.yul\":7538:7594   */\n  not\n    /* \"#utility.yul\":7623:7627   */\n  dup1\n    /* \"#utility.yul\":7617:7621   */\n  dup4\n    /* \"#utility.yul\":7613:7628   */\n  and\n    /* \"#utility.yul\":7603:7628   */\n  swap2\n  pop\n    /* \"#utility.yul\":7516:7634   */\n  pop\n    /* \"#utility.yul\":7465:7634   */\n  swap3\n  swap2\n  pop\n  pop\n  jump\t// out\n    /* \"#utility.yul\":7639:7934   */\ntag_44:\n    /* \"#utility.yul\":7715:7719   */\n  0x00\n    /* \"#utility.yul\":7861:7890   */\n  tag_139\n    /* \"#utility.yul\":7886:7889   */\n  dup4\n    /* \"#utility.yul\":7880:7884   */\n  dup4\n    /* \"#utility.yul\":7861:7890   */\n  tag_43\n  jump\t// in\ntag_139:\n    /* \"#utility.yul\":7853:7890   */\n  swap2\n  pop\n    /* \"#utility.yul\":7923:7926   */\n  dup3\n    /* \"#utility.yul\":7920:7921   */\n  0x02\n    /* \"#utility.yul\":7916:7927   */\n  mul\n    /* \"#utility.yul\":7910:7914   */\n  dup3\n    /* \"#utility.yul\":7907:7928   */\n  or\n    /* \"#utility.yul\":7899:7928   */\n  swap1\n  pop\n    /* \"#utility.yul\":7639:7934   */\n  swap3\n  swap2\n  pop\n  pop\n  jump\t// out\n    /* \"#utility.yul\":7939:9334   */\ntag_7:\n    /* \"#utility.yul\":8056:8093   */\n  tag_141\n    /* \"#utility.yul\":8089:8092   */\n  dup3\n    /* \"#utility.yul\":8056:8093   */\n  tag_27\n  jump\t// in\ntag_141:\n    /* \"#utility.yul\":8158:8176   */\n  0xffffffffffffffff\n    /* \"#utility.yul\":8150:8156   */\n  dup2\n    /* \"#utility.yul\":8147:8177   */\n  gt\n    /* \"#utility.yul\":8144:8200   */\n  iszero\n  tag_142\n  jumpi\n    /* \"#utility.yul\":8180:8198   */\n  tag_143\n  tag_17\n  jump\t// in\ntag_143:\n    /* \"#utility.yul\":8144:8200   */\ntag_142:\n    /* \"#utility.yul\":8224:8262   */\n  tag_144\n    /* \"#utility.yul\":8256:8260   */\n  dup3\n    /* \"#utility.yul\":8250:8261   */\n  sload\n    /* \"#utility.yul\":8224:8262   */\n  tag_29\n  jump\t// in\ntag_144:\n    /* \"#utility.yul\":8309:8376   */\n  tag_145\n    /* \"#utility.yul\":8369:8375   */\n  dup3\n    /* \"#utility.yul\":8361:8367   */\n  dup3\n    /* \"#utility.yul\":8355:8359   */\n  dup6\n    /* \"#utility.yul\":8309:8376   */\n  tag_41\n  jump\t// in\ntag_145:\n    /* \"#utility.yul\":8403:8404   */\n  0x00\n    /* \"#utility.yul\":8427:8431   */\n  0x20\n    /* \"#utility.yul\":8414:8431   */\n  swap1\n  pop\n    /* \"#utility.yul\":8459:8461   */\n  0x1f\n    /* \"#utility.yul\":8451:8457   */\n  dup4\n    /* \"#utility.yul\":8448:8462   */\n  gt\n    /* \"#utility.yul\":8476:8477   */\n  0x01\n    /* \"#utility.yul\":8471:9089   */\n  dup2\n  eq\n  tag_147\n  jumpi\n    /* \"#utility.yul\":9133:9134   */\n  0x00\n    /* \"#utility.yul\":9150:9156   */\n  dup5\n    /* \"#utility.yul\":9147:9224   */\n  iszero\n  tag_148\n  jumpi\n    /* \"#utility.yul\":9199:9208   */\n  dup3\n    /* \"#utility.yul\":9194:9197   */\n  dup8\n    /* \"#utility.yul\":9190:9209   */\n  add\n    /* \"#utility.yul\":9184:9210   */\n  mload\n    /* \"#utility.yul\":9175:9210   */\n  swap1\n  pop\n    /* \"#utility.yul\":9147:9224   */\ntag_148:\n    /* \"#utility.yul\":9250:9317   */\n  tag_149\n    /* \"#utility.yul\":9310:9316   */\n  dup6\n    /* \"#utility.yul\":9303:9308   */\n  dup3\n    /* \"#utility.yul\":9250:9317   */\n  tag_44\n  jump\t// in\ntag_149:\n    /* \"#utility.yul\":9244:9248   */\n  dup7\n    /* \"#utility.yul\":9237:9318   */\n  sstore\n    /* \"#utility.yul\":9106:9328   */\n  pop\n    /* \"#utility.yul\":8441:9328   */\n  jump(tag_146)\n    /* \"#utility.yul\":8471:9089   */\ntag_147:\n    /* \"#utility.yul\":8523:8527   */\n  0x1f\n    /* \"#utility.yul\":8519:8528   */\n  not\n    /* \"#utility.yul\":8511:8517   */\n  dup5\n    /* \"#utility.yul\":8507:8529   */\n  and\n    /* \"#utility.yul\":8557:8594   */\n  tag_150\n    /* \"#utility.yul\":8589:8593   */\n  dup7\n    /* \"#utility.yul\":8557:8594   */\n  tag_30\n  jump\t// in\ntag_150:\n    /* \"#utility.yul\":8616:8617   */\n  0x00\n    /* \"#utility.yul\":8630:8838   */\ntag_151:\n    /* \"#utility.yul\":8644:8651   */\n  dup3\n    /* \"#utility.yul\":8641:8642   */\n  dup2\n    /* \"#utility.yul\":8638:8652   */\n  lt\n    /* \"#utility.yul\":8630:8838   */\n  iszero\n  tag_153\n  jumpi\n    /* \"#utility.yul\":8723:8732   */\n  dup5\n    /* \"#utility.yul\":8718:8721   */\n  dup10\n    /* \"#utility.yul\":8714:8733   */\n  add\n    /* \"#utility.yul\":8708:8734   */\n  mload\n    /* \"#utility.yul\":8700:8706   */\n  dup3\n    /* \"#utility.yul\":8693:8735   */\n  sstore\n    /* \"#utility.yul\":8774:8775   */\n  0x01\n    /* \"#utility.yul\":8766:8772   */\n  dup3\n    /* \"#utility.yul\":8762:8776   */\n  add\n    /* \"#utility.yul\":8752:8776   */\n  swap2\n  pop\n    /* \"#utility.yul\":8821:8823   */\n  0x20\n    /* \"#utility.yul\":8810:8819   */\n  dup6\n    /* \"#utility.yul\":8806:8824   */\n  add\n    /* \"#utility.yul\":8793:8824   */\n  swap5\n  pop\n    /* \"#utility.yul\":8667:8671   */\n  0x20\n    /* \"#utility.yul\":8664:8665   */\n  dup2\n    /* \"#utility.yul\":8660:8672   */\n  add\n    /* \"#utility.yul\":8655:8672   */\n  swap1\n  pop\n    /* \"#utility.yul\":8630:8838   */\n  jump(tag_151)\ntag_153:\n    /* \"#utility.yul\":8866:8872   */\n  dup7\n    /* \"#utility.yul\":8857:8864   */\n  dup4\n    /* \"#utility.yul\":8854:8873   */\n  lt\n    /* \"#utility.yul\":8851:9030   */\n  iszero\n  tag_154\n  jumpi\n    /* \"#utility.yul\":8924:8933   */\n  dup5\n    /* \"#utility.yul\":8919:8922   */\n  dup10\n    /* \"#utility.yul\":8915:8934   */\n  add\n    /* \"#utility.yul\":8909:8935   */\n  mload\n    /* \"#utility.yul\":8967:9015   */\n  tag_155\n    /* \"#utility.yul\":9009:9013   */\n  0x1f\n    /* \"#utility.yul\":9001:9007   */\n  dup10\n    /* \"#utility.yul\":8997:9014   */\n  and\n    /* \"#utility.yul\":8986:8995   */\n  dup3\n    /* \"#utility.yul\":8967:9015   */\n  tag_43\n  jump\t// in\ntag_155:\n    /* \"#utility.yul\":8959:8965   */\n  dup4\n    /* \"#utility.yul\":8952:9016   */\n  sstore\n    /* \"#utility.yul\":8874:9030   */\n  pop\n    /* \"#utility.yul\":8851:9030   */\ntag_154:\n    /* \"#utility.yul\":9076:9077   */\n  0x01\n    /* \"#utility.yul\":9072:9073   */\n  0x02\n    /* \"#utility.yul\":9064:9070   */\n  dup9\n    /* \"#utility.yul\":9060:9074   */\n  mul\n    /* \"#utility.yul\":9056:9078   */\n  add\n    /* \"#utility.yul\":9050:9054   */\n  dup9\n    /* \"#utility.yul\":9043:9079   */\n  sstore\n    /* \"#utility.yul\":8478:9089   */\n  pop\n  pop\n  pop\n    /* \"#utility.yul\":8441:9328   */\ntag_146:\n  pop\n    /* \"#utility.yul\":8031:9334   */\n  pop\n  pop\n  pop\n    /* \"#utility.yul\":7939:9334   */\n  pop\n  pop\n  jump\t// out\n    /* \"DigitalIdentity/Proposal/MyProfile.sol\":69:1879  contract Identity {... */\ntag_10:\n  dataSize(sub_0)\n  dup1\n  dataOffset(sub_0)\n  0x00\n  codecopy\n  0x00\n  return\nstop\n\nsub_0: assembly {\n        /* \"DigitalIdentity/Proposal/MyProfile.sol\":69:1879  contract Identity {... */\n      mstore(0x40, 0x80)\n      callvalue\n      dup1\n      iszero\n      tag_1\n      jumpi\n      0x00\n      dup1\n      revert\n    tag_1:\n      pop\n      jumpi(tag_2, lt(calldatasize, 0x04))\n      shr(0xe0, calldataload(0x00))\n      dup1\n      0x81f539ff\n      eq\n      tag_3\n      jumpi\n      dup1\n      0x9f0010fc\n      eq\n      tag_4\n      jumpi\n      dup1\n      0x9f999da3\n      eq\n      tag_5\n      jumpi\n    tag_2:\n      0x00\n      dup1\n      revert\n        /* \"DigitalIdentity/Proposal/MyProfile.sol\":1437:1611  function getPersonalInfo()... */\n    tag_3:\n      tag_6\n      tag_7\n      jump\t// in\n    tag_6:\n      mload(0x40)\n      tag_8\n      swap2\n      swap1\n      tag_9\n      jump\t// in\n    tag_8:\n      mload(0x40)\n      dup1\n      swap2\n      sub\n      swap1\n      return\n        /* \"DigitalIdentity/Proposal/MyProfile.sol\":1617:1877  function registerUser(UserType userType, address user) public onlyOwner {... */\n    tag_4:\n      tag_10\n      0x04\n      dup1\n      calldatasize\n      sub\n      dup2\n      add\n      swap1\n      tag_11\n      swap2\n      swap1\n      tag_12\n      jump\t// in\n    tag_11:\n      tag_13\n      jump\t// in\n    tag_10:\n      stop\n        /* \"DigitalIdentity/Proposal/MyProfile.sol\":1269:1431  function getBasicInfo()... */\n    tag_5:\n      tag_14\n      tag_15\n      jump\t// in\n    tag_14:\n      mload(0x40)\n      tag_16\n      swap2\n      swap1\n      tag_17\n      jump\t// in\n    tag_16:\n      mload(0x40)\n      dup1\n      swap2\n      sub\n      swap1\n      return\n        /* \"DigitalIdentity/Proposal/MyProfile.sol\":1437:1611  function getPersonalInfo()... */\n    tag_7:\n        /* \"DigitalIdentity/Proposal/MyProfile.sol\":1550:1569  PersonalInfo memory */\n      tag_18\n      tag_19\n      jump\t// in\n    tag_18:\n        /* \"DigitalIdentity/Proposal/MyProfile.sol\":1514:1531  UserType.Personal */\n      0x01\n        /* \"DigitalIdentity/Proposal/MyProfile.sol\":912:917  owner */\n      0x04\n      0x00\n      swap1\n      sload\n      swap1\n      0x0100\n      exp\n      swap1\n      div\n      0xffffffffffffffffffffffffffffffffffffffff\n      and\n        /* \"DigitalIdentity/Proposal/MyProfile.sol\":898:917  msg.sender == owner */\n      0xffffffffffffffffffffffffffffffffffffffff\n      and\n        /* \"DigitalIdentity/Proposal/MyProfile.sol\":898:908  msg.sender */\n      caller\n        /* \"DigitalIdentity/Proposal/MyProfile.sol\":898:917  msg.sender == owner */\n      0xffffffffffffffffffffffffffffffffffffffff\n      and\n      eq\n        /* \"DigitalIdentity/Proposal/MyProfile.sol\":898:946  msg.sender == owner || personalUsers[msg.sender] */\n      dup1\n      tag_21\n      jumpi\n      pop\n        /* \"DigitalIdentity/Proposal/MyProfile.sol\":921:934  personalUsers */\n      0x06\n        /* \"DigitalIdentity/Proposal/MyProfile.sol\":921:946  personalUsers[msg.sender] */\n      0x00\n        /* \"DigitalIdentity/Proposal/MyProfile.sol\":935:945  msg.sender */\n      caller\n        /* \"DigitalIdentity/Proposal/MyProfile.sol\":921:946  personalUsers[msg.sender] */\n      0xffffffffffffffffffffffffffffffffffffffff\n      and\n      0xffffffffffffffffffffffffffffffffffffffff\n      and\n      dup2\n      mstore\n      0x20\n      add\n      swap1\n      dup2\n      mstore\n      0x20\n      add\n      0x00\n      keccak256\n      0x00\n      swap1\n      sload\n      swap1\n      0x0100\n      exp\n      swap1\n      div\n      0xff\n      and\n        /* \"DigitalIdentity/Proposal/MyProfile.sol\":898:946  msg.sender == owner || personalUsers[msg.sender] */\n    tag_21:\n        /* \"DigitalIdentity/Proposal/MyProfile.sol\":894:1140  if (msg.sender == owner || personalUsers[msg.sender]) {... */\n      iszero\n      tag_22\n      jumpi\n        /* \"DigitalIdentity/Proposal/MyProfile.sol\":1592:1604  personalInfo */\n      0x02\n        /* \"DigitalIdentity/Proposal/MyProfile.sol\":1585:1604  return personalInfo */\n      mload(0x40)\n      dup1\n      0x40\n      add\n      0x40\n      mstore\n      swap1\n      dup2\n      0x00\n      dup3\n      add\n      sload\n      dup2\n      mstore\n      0x20\n      add\n      0x01\n      dup3\n      add\n      dup1\n      sload\n      tag_24\n      swap1\n      tag_25\n      jump\t// in\n    tag_24:\n      dup1\n      0x1f\n      add\n      0x20\n      dup1\n      swap2\n      div\n      mul\n      0x20\n      add\n      mload(0x40)\n      swap1\n      dup2\n      add\n      0x40\n      mstore\n      dup1\n      swap3\n      swap2\n      swap1\n      dup2\n      dup2\n      mstore\n      0x20\n      add\n      dup3\n      dup1\n      sload\n      tag_26\n      swap1\n      tag_25\n      jump\t// in\n    tag_26:\n      dup1\n      iszero\n      tag_27\n      jumpi\n      dup1\n      0x1f\n      lt\n      tag_28\n      jumpi\n      0x0100\n      dup1\n      dup4\n      sload\n      div\n      mul\n      dup4\n      mstore\n      swap2\n      0x20\n      add\n      swap2\n      jump(tag_27)\n    tag_28:\n      dup3\n      add\n      swap2\n      swap1\n      0x00\n      mstore\n      keccak256(0x00, 0x20)\n      swap1\n    tag_29:\n      dup2\n      sload\n      dup2\n      mstore\n      swap1\n      0x01\n      add\n      swap1\n      0x20\n      add\n      dup1\n      dup4\n      gt\n      tag_29\n      jumpi\n      dup3\n      swap1\n      sub\n      0x1f\n      and\n      dup3\n      add\n      swap2\n    tag_27:\n      pop\n      pop\n      pop\n      pop\n      pop\n      dup2\n      mstore\n      pop\n      pop\n      swap2\n      pop\n        /* \"DigitalIdentity/Proposal/MyProfile.sol\":894:1140  if (msg.sender == owner || personalUsers[msg.sender]) {... */\n      jump(tag_30)\n    tag_22:\n        /* \"DigitalIdentity/Proposal/MyProfile.sol\":996:1010  UserType.Basic */\n      0x00\n        /* \"DigitalIdentity/Proposal/MyProfile.sol\":984:1010  userType == UserType.Basic */\n      0x01\n      dup2\n      gt\n      iszero\n      tag_31\n      jumpi\n      tag_32\n      tag_33\n      jump\t// in\n    tag_32:\n    tag_31:\n        /* \"DigitalIdentity/Proposal/MyProfile.sol\":984:992  userType */\n      dup2\n        /* \"DigitalIdentity/Proposal/MyProfile.sol\":984:1010  userType == UserType.Basic */\n      0x01\n      dup2\n      gt\n      iszero\n      tag_34\n      jumpi\n      tag_35\n      tag_33\n      jump\t// in\n    tag_35:\n    tag_34:\n      eq\n        /* \"DigitalIdentity/Proposal/MyProfile.sol\":984:1036  userType == UserType.Basic && basicUsers[msg.sender] */\n      dup1\n      iszero\n      tag_36\n      jumpi\n      pop\n        /* \"DigitalIdentity/Proposal/MyProfile.sol\":1014:1024  basicUsers */\n      0x05\n        /* \"DigitalIdentity/Proposal/MyProfile.sol\":1014:1036  basicUsers[msg.sender] */\n      0x00\n        /* \"DigitalIdentity/Proposal/MyProfile.sol\":1025:1035  msg.sender */\n      caller\n        /* \"DigitalIdentity/Proposal/MyProfile.sol\":1014:1036  basicUsers[msg.sender] */\n      0xffffffffffffffffffffffffffffffffffffffff\n      and\n      0xffffffffffffffffffffffffffffffffffffffff\n      and\n      dup2\n      mstore\n      0x20\n      add\n      swap1\n      dup2\n      mstore\n      0x20\n      add\n      0x00\n      keccak256\n      0x00\n      swap1\n      sload\n      swap1\n      0x0100\n      exp\n      swap1\n      div\n      0xff\n      and\n        /* \"DigitalIdentity/Proposal/MyProfile.sol\":984:1036  userType == UserType.Basic && basicUsers[msg.sender] */\n    tag_36:\n        /* \"DigitalIdentity/Proposal/MyProfile.sol\":980:1140  if (userType == UserType.Basic && basicUsers[msg.sender]) {... */\n      iszero\n      tag_37\n      jumpi\n        /* \"DigitalIdentity/Proposal/MyProfile.sol\":1592:1604  personalInfo */\n      0x02\n        /* \"DigitalIdentity/Proposal/MyProfile.sol\":1585:1604  return personalInfo */\n      mload(0x40)\n      dup1\n      0x40\n      add\n      0x40\n      mstore\n      swap1\n      dup2\n      0x00\n      dup3\n      add\n      sload\n      dup2\n      mstore\n      0x20\n      add\n      0x01\n      dup3\n      add\n      dup1\n      sload\n      tag_39\n      swap1\n      tag_25\n      jump\t// in\n    tag_39:\n      dup1\n      0x1f\n      add\n      0x20\n      dup1\n      swap2\n      div\n      mul\n      0x20\n      add\n      mload(0x40)\n      swap1\n      dup2\n      add\n      0x40\n      mstore\n      dup1\n      swap3\n      swap2\n      swap1\n      dup2\n      dup2\n      mstore\n      0x20\n      add\n      dup3\n      dup1\n      sload\n      tag_40\n      swap1\n      tag_25\n      jump\t// in\n    tag_40:\n      dup1\n      iszero\n      tag_41\n      jumpi\n      dup1\n      0x1f\n      lt\n      tag_42\n      jumpi\n      0x0100\n      dup1\n      dup4\n      sload\n      div\n      mul\n      dup4\n      mstore\n      swap2\n      0x20\n      add\n      swap2\n      jump(tag_41)\n    tag_42:\n      dup3\n      add\n      swap2\n      swap1\n      0x00\n      mstore\n      keccak256(0x00, 0x20)\n      swap1\n    tag_43:\n      dup2\n      sload\n      dup2\n      mstore\n      swap1\n      0x01\n      add\n      swap1\n      0x20\n      add\n      dup1\n      dup4\n      gt\n      tag_43\n      jumpi\n      dup3\n      swap1\n      sub\n      0x1f\n      and\n      dup3\n      add\n      swap2\n    tag_41:\n      pop\n      pop\n      pop\n      pop\n      pop\n      dup2\n      mstore\n      pop\n      pop\n      swap2\n      pop\n        /* \"DigitalIdentity/Proposal/MyProfile.sol\":980:1140  if (userType == UserType.Basic && basicUsers[msg.sender]) {... */\n      jump(tag_44)\n    tag_37:\n        /* \"DigitalIdentity/Proposal/MyProfile.sol\":1108:1118  msg.sender */\n      caller\n        /* \"DigitalIdentity/Proposal/MyProfile.sol\":1120:1128  userType */\n      dup2\n        /* \"DigitalIdentity/Proposal/MyProfile.sol\":1091:1129  UserUnauthorized(msg.sender, userType) */\n      mload(0x40)\n      0x301d703b00000000000000000000000000000000000000000000000000000000\n      dup2\n      mstore\n      0x04\n      add\n      tag_45\n      swap3\n      swap2\n      swap1\n      tag_46\n      jump\t// in\n    tag_45:\n      mload(0x40)\n      dup1\n      swap2\n      sub\n      swap1\n      revert\n        /* \"DigitalIdentity/Proposal/MyProfile.sol\":980:1140  if (userType == UserType.Basic && basicUsers[msg.sender]) {... */\n    tag_44:\n        /* \"DigitalIdentity/Proposal/MyProfile.sol\":894:1140  if (msg.sender == owner || personalUsers[msg.sender]) {... */\n    tag_30:\n        /* \"DigitalIdentity/Proposal/MyProfile.sol\":1437:1611  function getPersonalInfo()... */\n      pop\n      swap1\n      jump\t// out\n        /* \"DigitalIdentity/Proposal/MyProfile.sol\":1617:1877  function registerUser(UserType userType, address user) public onlyOwner {... */\n    tag_13:\n        /* \"DigitalIdentity/Proposal/MyProfile.sol\":1205:1210  owner */\n      0x04\n      0x00\n      swap1\n      sload\n      swap1\n      0x0100\n      exp\n      swap1\n      div\n      0xffffffffffffffffffffffffffffffffffffffff\n      and\n        /* \"DigitalIdentity/Proposal/MyProfile.sol\":1191:1210  msg.sender == owner */\n      0xffffffffffffffffffffffffffffffffffffffff\n      and\n        /* \"DigitalIdentity/Proposal/MyProfile.sol\":1191:1201  msg.sender */\n      caller\n        /* \"DigitalIdentity/Proposal/MyProfile.sol\":1191:1210  msg.sender == owner */\n      0xffffffffffffffffffffffffffffffffffffffff\n      and\n      eq\n        /* \"DigitalIdentity/Proposal/MyProfile.sol\":1183:1245  require(msg.sender == owner, \"Only owner can authorize users\") */\n      tag_48\n      jumpi\n      mload(0x40)\n      0x08c379a000000000000000000000000000000000000000000000000000000000\n      dup2\n      mstore\n      0x04\n      add\n      tag_49\n      swap1\n      tag_50\n      jump\t// in\n    tag_49:\n      mload(0x40)\n      dup1\n      swap2\n      sub\n      swap1\n      revert\n    tag_48:\n        /* \"DigitalIdentity/Proposal/MyProfile.sol\":1715:1729  UserType.Basic */\n      0x00\n        /* \"DigitalIdentity/Proposal/MyProfile.sol\":1703:1729  userType == UserType.Basic */\n      0x01\n      dup2\n      gt\n      iszero\n      tag_52\n      jumpi\n      tag_53\n      tag_33\n      jump\t// in\n    tag_53:\n    tag_52:\n        /* \"DigitalIdentity/Proposal/MyProfile.sol\":1703:1711  userType */\n      dup3\n        /* \"DigitalIdentity/Proposal/MyProfile.sol\":1703:1729  userType == UserType.Basic */\n      0x01\n      dup2\n      gt\n      iszero\n      tag_54\n      jumpi\n      tag_55\n      tag_33\n      jump\t// in\n    tag_55:\n    tag_54:\n      sub\n        /* \"DigitalIdentity/Proposal/MyProfile.sol\":1699:1871  if (userType == UserType.Basic) {... */\n      tag_56\n      jumpi\n        /* \"DigitalIdentity/Proposal/MyProfile.sol\":1764:1768  true */\n      0x01\n        /* \"DigitalIdentity/Proposal/MyProfile.sol\":1745:1755  basicUsers */\n      0x05\n        /* \"DigitalIdentity/Proposal/MyProfile.sol\":1745:1761  basicUsers[user] */\n      0x00\n        /* \"DigitalIdentity/Proposal/MyProfile.sol\":1756:1760  user */\n      dup4\n        /* \"DigitalIdentity/Proposal/MyProfile.sol\":1745:1761  basicUsers[user] */\n      0xffffffffffffffffffffffffffffffffffffffff\n      and\n      0xffffffffffffffffffffffffffffffffffffffff\n      and\n      dup2\n      mstore\n      0x20\n      add\n      swap1\n      dup2\n      mstore\n      0x20\n      add\n      0x00\n      keccak256\n      0x00\n        /* \"DigitalIdentity/Proposal/MyProfile.sol\":1745:1768  basicUsers[user] = true */\n      0x0100\n      exp\n      dup2\n      sload\n      dup2\n      0xff\n      mul\n      not\n      and\n      swap1\n      dup4\n      iszero\n      iszero\n      mul\n      or\n      swap1\n      sstore\n      pop\n        /* \"DigitalIdentity/Proposal/MyProfile.sol\":1699:1871  if (userType == UserType.Basic) {... */\n      jump(tag_57)\n    tag_56:\n        /* \"DigitalIdentity/Proposal/MyProfile.sol\":1801:1818  UserType.Personal */\n      0x01\n        /* \"DigitalIdentity/Proposal/MyProfile.sol\":1789:1818  userType == UserType.Personal */\n      dup1\n      dup2\n      gt\n      iszero\n      tag_58\n      jumpi\n      tag_59\n      tag_33\n      jump\t// in\n    tag_59:\n    tag_58:\n        /* \"DigitalIdentity/Proposal/MyProfile.sol\":1789:1797  userType */\n      dup3\n        /* \"DigitalIdentity/Proposal/MyProfile.sol\":1789:1818  userType == UserType.Personal */\n      0x01\n      dup2\n      gt\n      iszero\n      tag_60\n      jumpi\n      tag_61\n      tag_33\n      jump\t// in\n    tag_61:\n    tag_60:\n      sub\n        /* \"DigitalIdentity/Proposal/MyProfile.sol\":1785:1871  if (userType == UserType.Personal) {... */\n      tag_62\n      jumpi\n        /* \"DigitalIdentity/Proposal/MyProfile.sol\":1856:1860  true */\n      0x01\n        /* \"DigitalIdentity/Proposal/MyProfile.sol\":1834:1847  personalUsers */\n      0x06\n        /* \"DigitalIdentity/Proposal/MyProfile.sol\":1834:1853  personalUsers[user] */\n      0x00\n        /* \"DigitalIdentity/Proposal/MyProfile.sol\":1848:1852  user */\n      dup4\n        /* \"DigitalIdentity/Proposal/MyProfile.sol\":1834:1853  personalUsers[user] */\n      0xffffffffffffffffffffffffffffffffffffffff\n      and\n      0xffffffffffffffffffffffffffffffffffffffff\n      and\n      dup2\n      mstore\n      0x20\n      add\n      swap1\n      dup2\n      mstore\n      0x20\n      add\n      0x00\n      keccak256\n      0x00\n        /* \"DigitalIdentity/Proposal/MyProfile.sol\":1834:1860  personalUsers[user] = true */\n      0x0100\n      exp\n      dup2\n      sload\n      dup2\n      0xff\n      mul\n      not\n      and\n      swap1\n      dup4\n      iszero\n      iszero\n      mul\n      or\n      swap1\n      sstore\n      pop\n        /* \"DigitalIdentity/Proposal/MyProfile.sol\":1785:1871  if (userType == UserType.Personal) {... */\n    tag_62:\n        /* \"DigitalIdentity/Proposal/MyProfile.sol\":1699:1871  if (userType == UserType.Basic) {... */\n    tag_57:\n        /* \"DigitalIdentity/Proposal/MyProfile.sol\":1617:1877  function registerUser(UserType userType, address user) public onlyOwner {... */\n      pop\n      pop\n      jump\t// out\n        /* \"DigitalIdentity/Proposal/MyProfile.sol\":1269:1431  function getBasicInfo()... */\n    tag_15:\n        /* \"DigitalIdentity/Proposal/MyProfile.sol\":1376:1392  BasicInfo memory */\n      tag_63\n      tag_64\n      jump\t// in\n    tag_63:\n        /* \"DigitalIdentity/Proposal/MyProfile.sol\":1343:1357  UserType.Basic */\n      0x00\n        /* \"DigitalIdentity/Proposal/MyProfile.sol\":912:917  owner */\n      0x04\n      0x00\n      swap1\n      sload\n      swap1\n      0x0100\n      exp\n      swap1\n      div\n      0xffffffffffffffffffffffffffffffffffffffff\n      and\n        /* \"DigitalIdentity/Proposal/MyProfile.sol\":898:917  msg.sender == owner */\n      0xffffffffffffffffffffffffffffffffffffffff\n      and\n        /* \"DigitalIdentity/Proposal/MyProfile.sol\":898:908  msg.sender */\n      caller\n        /* \"DigitalIdentity/Proposal/MyProfile.sol\":898:917  msg.sender == owner */\n      0xffffffffffffffffffffffffffffffffffffffff\n      and\n      eq\n        /* \"DigitalIdentity/Proposal/MyProfile.sol\":898:946  msg.sender == owner || personalUsers[msg.sender] */\n      dup1\n      tag_66\n      jumpi\n      pop\n        /* \"DigitalIdentity/Proposal/MyProfile.sol\":921:934  personalUsers */\n      0x06\n        /* \"DigitalIdentity/Proposal/MyProfile.sol\":921:946  personalUsers[msg.sender] */\n      0x00\n        /* \"DigitalIdentity/Proposal/MyProfile.sol\":935:945  msg.sender */\n      caller\n        /* \"DigitalIdentity/Proposal/MyProfile.sol\":921:946  personalUsers[msg.sender] */\n      0xffffffffffffffffffffffffffffffffffffffff\n      and\n      0xffffffffffffffffffffffffffffffffffffffff\n      and\n      dup2\n      mstore\n      0x20\n      add\n      swap1\n      dup2\n      mstore\n      0x20\n      add\n      0x00\n      keccak256\n      0x00\n      swap1\n      sload\n      swap1\n      0x0100\n      exp\n      swap1\n      div\n      0xff\n      and\n        /* \"DigitalIdentity/Proposal/MyProfile.sol\":898:946  msg.sender == owner || personalUsers[msg.sender] */\n    tag_66:\n        /* \"DigitalIdentity/Proposal/MyProfile.sol\":894:1140  if (msg.sender == owner || personalUsers[msg.sender]) {... */\n      iszero\n      tag_67\n      jumpi\n        /* \"DigitalIdentity/Proposal/MyProfile.sol\":1415:1424  basicInfo */\n      0x00\n        /* \"DigitalIdentity/Proposal/MyProfile.sol\":1408:1424  return basicInfo */\n      mload(0x40)\n      dup1\n      0x40\n      add\n      0x40\n      mstore\n      swap1\n      dup2\n      0x00\n      dup3\n      add\n      dup1\n      sload\n      tag_69\n      swap1\n      tag_25\n      jump\t// in\n    tag_69:\n      dup1\n      0x1f\n      add\n      0x20\n      dup1\n      swap2\n      div\n      mul\n      0x20\n      add\n      mload(0x40)\n      swap1\n      dup2\n      add\n      0x40\n      mstore\n      dup1\n      swap3\n      swap2\n      swap1\n      dup2\n      dup2\n      mstore\n      0x20\n      add\n      dup3\n      dup1\n      sload\n      tag_70\n      swap1\n      tag_25\n      jump\t// in\n    tag_70:\n      dup1\n      iszero\n      tag_71\n      jumpi\n      dup1\n      0x1f\n      lt\n      tag_72\n      jumpi\n      0x0100\n      dup1\n      dup4\n      sload\n      div\n      mul\n      dup4\n      mstore\n      swap2\n      0x20\n      add\n      swap2\n      jump(tag_71)\n    tag_72:\n      dup3\n      add\n      swap2\n      swap1\n      0x00\n      mstore\n      keccak256(0x00, 0x20)\n      swap1\n    tag_73:\n      dup2\n      sload\n      dup2\n      mstore\n      swap1\n      0x01\n      add\n      swap1\n      0x20\n      add\n      dup1\n      dup4\n      gt\n      tag_73\n      jumpi\n      dup3\n      swap1\n      sub\n      0x1f\n      and\n      dup3\n      add\n      swap2\n    tag_71:\n      pop\n      pop\n      pop\n      pop\n      pop\n      dup2\n      mstore\n      0x20\n      add\n      0x01\n      dup3\n      add\n      dup1\n      sload\n      tag_74\n      swap1\n      tag_25\n      jump\t// in\n    tag_74:\n      dup1\n      0x1f\n      add\n      0x20\n      dup1\n      swap2\n      div\n      mul\n      0x20\n      add\n      mload(0x40)\n      swap1\n      dup2\n      add\n      0x40\n      mstore\n      dup1\n      swap3\n      swap2\n      swap1\n      dup2\n      dup2\n      mstore\n      0x20\n      add\n      dup3\n      dup1\n      sload\n      tag_75\n      swap1\n      tag_25\n      jump\t// in\n    tag_75:\n      dup1\n      iszero\n      tag_76\n      jumpi\n      dup1\n      0x1f\n      lt\n      tag_77\n      jumpi\n      0x0100\n      dup1\n      dup4\n      sload\n      div\n      mul\n      dup4\n      mstore\n      swap2\n      0x20\n      add\n      swap2\n      jump(tag_76)\n    tag_77:\n      dup3\n      add\n      swap2\n      swap1\n      0x00\n      mstore\n      keccak256(0x00, 0x20)\n      swap1\n    tag_78:\n      dup2\n      sload\n      dup2\n      mstore\n      swap1\n      0x01\n      add\n      swap1\n      0x20\n      add\n      dup1\n      dup4\n      gt\n      tag_78\n      jumpi\n      dup3\n      swap1\n      sub\n      0x1f\n      and\n      dup3\n      add\n      swap2\n    tag_76:\n      pop\n      pop\n      pop\n      pop\n      pop\n      dup2\n      mstore\n      pop\n      pop\n      swap2\n      pop\n        /* \"DigitalIdentity/Proposal/MyProfile.sol\":894:1140  if (msg.sender == owner || personalUsers[msg.sender]) {... */\n      jump(tag_79)\n    tag_67:\n        /* \"DigitalIdentity/Proposal/MyProfile.sol\":996:1010  UserType.Basic */\n      0x00\n        /* \"DigitalIdentity/Proposal/MyProfile.sol\":984:1010  userType == UserType.Basic */\n      0x01\n      dup2\n      gt\n      iszero\n      tag_80\n      jumpi\n      tag_81\n      tag_33\n      jump\t// in\n    tag_81:\n    tag_80:\n        /* \"DigitalIdentity/Proposal/MyProfile.sol\":984:992  userType */\n      dup2\n        /* \"DigitalIdentity/Proposal/MyProfile.sol\":984:1010  userType == UserType.Basic */\n      0x01\n      dup2\n      gt\n      iszero\n      tag_82\n      jumpi\n      tag_83\n      tag_33\n      jump\t// in\n    tag_83:\n    tag_82:\n      eq\n        /* \"DigitalIdentity/Proposal/MyProfile.sol\":984:1036  userType == UserType.Basic && basicUsers[msg.sender] */\n      dup1\n      iszero\n      tag_84\n      jumpi\n      pop\n        /* \"DigitalIdentity/Proposal/MyProfile.sol\":1014:1024  basicUsers */\n      0x05\n        /* \"DigitalIdentity/Proposal/MyProfile.sol\":1014:1036  basicUsers[msg.sender] */\n      0x00\n        /* \"DigitalIdentity/Proposal/MyProfile.sol\":1025:1035  msg.sender */\n      caller\n        /* \"DigitalIdentity/Proposal/MyProfile.sol\":1014:1036  basicUsers[msg.sender] */\n      0xffffffffffffffffffffffffffffffffffffffff\n      and\n      0xffffffffffffffffffffffffffffffffffffffff\n      and\n      dup2\n      mstore\n      0x20\n      add\n      swap1\n      dup2\n      mstore\n      0x20\n      add\n      0x00\n      keccak256\n      0x00\n      swap1\n      sload\n      swap1\n      0x0100\n      exp\n      swap1\n      div\n      0xff\n      and\n        /* \"DigitalIdentity/Proposal/MyProfile.sol\":984:1036  userType == UserType.Basic && basicUsers[msg.sender] */\n    tag_84:\n        /* \"DigitalIdentity/Proposal/MyProfile.sol\":980:1140  if (userType == UserType.Basic && basicUsers[msg.sender]) {... */\n      iszero\n      tag_85\n      jumpi\n        /* \"DigitalIdentity/Proposal/MyProfile.sol\":1415:1424  basicInfo */\n      0x00\n        /* \"DigitalIdentity/Proposal/MyProfile.sol\":1408:1424  return basicInfo */\n      mload(0x40)\n      dup1\n      0x40\n      add\n      0x40\n      mstore\n      swap1\n      dup2\n      0x00\n      dup3\n      add\n      dup1\n      sload\n      tag_87\n      swap1\n      tag_25\n      jump\t// in\n    tag_87:\n      dup1\n      0x1f\n      add\n      0x20\n      dup1\n      swap2\n      div\n      mul\n      0x20\n      add\n      mload(0x40)\n      swap1\n      dup2\n      add\n      0x40\n      mstore\n      dup1\n      swap3\n      swap2\n      swap1\n      dup2\n      dup2\n      mstore\n      0x20\n      add\n      dup3\n      dup1\n      sload\n      tag_88\n      swap1\n      tag_25\n      jump\t// in\n    tag_88:\n      dup1\n      iszero\n      tag_89\n      jumpi\n      dup1\n      0x1f\n      lt\n      tag_90\n      jumpi\n      0x0100\n      dup1\n      dup4\n      sload\n      div\n      mul\n      dup4\n      mstore\n      swap2\n      0x20\n      add\n      swap2\n      jump(tag_89)\n    tag_90:\n      dup3\n      add\n      swap2\n      swap1\n      0x00\n      mstore\n      keccak256(0x00, 0x20)\n      swap1\n    tag_91:\n      dup2\n      sload\n      dup2\n      mstore\n      swap1\n      0x01\n      add\n      swap1\n      0x20\n      add\n      dup1\n      dup4\n      gt\n      tag_91\n      jumpi\n      dup3\n      swap1\n      sub\n      0x1f\n      and\n      dup3\n      add\n      swap2\n    tag_89:\n      pop\n      pop\n      pop\n      pop\n      pop\n      dup2\n      mstore\n      0x20\n      add\n      0x01\n      dup3\n      add\n      dup1\n      sload\n      tag_92\n      swap1\n      tag_25\n      jump\t// in\n    tag_92:\n      dup1\n      0x1f\n      add\n      0x20\n      dup1\n      swap2\n      div\n      mul\n      0x20\n      add\n      mload(0x40)\n      swap1\n      dup2\n      add\n      0x40\n      mstore\n      dup1\n      swap3\n      swap2\n      swap1\n      dup2\n      dup2\n      mstore\n      0x20\n      add\n      dup3\n      dup1\n      sload\n      tag_93\n      swap1\n      tag_25\n      jump\t// in\n    tag_93:\n      dup1\n      iszero\n      tag_94\n      jumpi\n      dup1\n      0x1f\n      lt\n      tag_95\n      jumpi\n      0x0100\n      dup1\n      dup4\n      sload\n      div\n      mul\n      dup4\n      mstore\n      swap2\n      0x20\n      add\n      swap2\n      jump(tag_94)\n    tag_95:\n      dup3\n      add\n      swap2\n      swap1\n      0x00\n      mstore\n      keccak256(0x00, 0x20)\n      swap1\n    tag_96:\n      dup2\n      sload\n      dup2\n      mstore\n      swap1\n      0x01\n      add\n      swap1\n      0x20\n      add\n      dup1\n      dup4\n      gt\n      tag_96\n      jumpi\n      dup3\n      swap1\n      sub\n      0x1f\n      and\n      dup3\n      add\n      swap2\n    tag_94:\n      pop\n      pop\n      pop\n      pop\n      pop\n      dup2\n      mstore\n      pop\n      pop\n      swap2\n      pop\n        /* \"DigitalIdentity/Proposal/MyProfile.sol\":980:1140  if (userType == UserType.Basic && basicUsers[msg.sender]) {... */\n      jump(tag_97)\n    tag_85:\n        /* \"DigitalIdentity/Proposal/MyProfile.sol\":1108:1118  msg.sender */\n      caller\n        /* \"DigitalIdentity/Proposal/MyProfile.sol\":1120:1128  userType */\n      dup2\n        /* \"DigitalIdentity/Proposal/MyProfile.sol\":1091:1129  UserUnauthorized(msg.sender, userType) */\n      mload(0x40)\n      0x301d703b00000000000000000000000000000000000000000000000000000000\n      dup2\n      mstore\n      0x04\n      add\n      tag_98\n      swap3\n      swap2\n      swap1\n      tag_46\n      jump\t// in\n    tag_98:\n      mload(0x40)\n      dup1\n      swap2\n      sub\n      swap1\n      revert\n        /* \"DigitalIdentity/Proposal/MyProfile.sol\":980:1140  if (userType == UserType.Basic && basicUsers[msg.sender]) {... */\n    tag_97:\n        /* \"DigitalIdentity/Proposal/MyProfile.sol\":894:1140  if (msg.sender == owner || personalUsers[msg.sender]) {... */\n    tag_79:\n        /* \"DigitalIdentity/Proposal/MyProfile.sol\":1269:1431  function getBasicInfo()... */\n      pop\n      swap1\n      jump\t// out\n    tag_19:\n      mload(0x40)\n      dup1\n      0x40\n      add\n      0x40\n      mstore\n      dup1\n      0x00\n      dup2\n      mstore\n      0x20\n      add\n      0x60\n      dup2\n      mstore\n      pop\n      swap1\n      jump\t// out\n    tag_64:\n      mload(0x40)\n      dup1\n      0x40\n      add\n      0x40\n      mstore\n      dup1\n      0x60\n      dup2\n      mstore\n      0x20\n      add\n      0x60\n      dup2\n      mstore\n      pop\n      swap1\n      jump\t// out\n        /* \"#utility.yul\":7:84   */\n    tag_99:\n        /* \"#utility.yul\":44:51   */\n      0x00\n        /* \"#utility.yul\":73:78   */\n      dup2\n        /* \"#utility.yul\":62:78   */\n      swap1\n      pop\n        /* \"#utility.yul\":7:84   */\n      swap2\n      swap1\n      pop\n      jump\t// out\n        /* \"#utility.yul\":90:198   */\n    tag_100:\n        /* \"#utility.yul\":167:191   */\n      tag_129\n        /* \"#utility.yul\":185:190   */\n      dup2\n        /* \"#utility.yul\":167:191   */\n      tag_99\n      jump\t// in\n    tag_129:\n        /* \"#utility.yul\":162:165   */\n      dup3\n        /* \"#utility.yul\":155:192   */\n      mstore\n        /* \"#utility.yul\":90:198   */\n      pop\n      pop\n      jump\t// out\n        /* \"#utility.yul\":204:303   */\n    tag_101:\n        /* \"#utility.yul\":256:262   */\n      0x00\n        /* \"#utility.yul\":290:295   */\n      dup2\n        /* \"#utility.yul\":284:296   */\n      mload\n        /* \"#utility.yul\":274:296   */\n      swap1\n      pop\n        /* \"#utility.yul\":204:303   */\n      swap2\n      swap1\n      pop\n      jump\t// out\n        /* \"#utility.yul\":309:468   */\n    tag_102:\n        /* \"#utility.yul\":383:394   */\n      0x00\n        /* \"#utility.yul\":417:423   */\n      dup3\n        /* \"#utility.yul\":412:415   */\n      dup3\n        /* \"#utility.yul\":405:424   */\n      mstore\n        /* \"#utility.yul\":457:461   */\n      0x20\n        /* \"#utility.yul\":452:455   */\n      dup3\n        /* \"#utility.yul\":448:462   */\n      add\n        /* \"#utility.yul\":433:462   */\n      swap1\n      pop\n        /* \"#utility.yul\":309:468   */\n      swap3\n      swap2\n      pop\n      pop\n      jump\t// out\n        /* \"#utility.yul\":474:720   */\n    tag_103:\n        /* \"#utility.yul\":555:556   */\n      0x00\n        /* \"#utility.yul\":565:678   */\n    tag_133:\n        /* \"#utility.yul\":579:585   */\n      dup4\n        /* \"#utility.yul\":576:577   */\n      dup2\n        /* \"#utility.yul\":573:586   */\n      lt\n        /* \"#utility.yul\":565:678   */\n      iszero\n      tag_135\n      jumpi\n        /* \"#utility.yul\":664:665   */\n      dup1\n        /* \"#utility.yul\":659:662   */\n      dup3\n        /* \"#utility.yul\":655:666   */\n      add\n        /* \"#utility.yul\":649:667   */\n      mload\n        /* \"#utility.yul\":645:646   */\n      dup2\n        /* \"#utility.yul\":640:643   */\n      dup5\n        /* \"#utility.yul\":636:647   */\n      add\n        /* \"#utility.yul\":629:668   */\n      mstore\n        /* \"#utility.yul\":601:603   */\n      0x20\n        /* \"#utility.yul\":598:599   */\n      dup2\n        /* \"#utility.yul\":594:604   */\n      add\n        /* \"#utility.yul\":589:604   */\n      swap1\n      pop\n        /* \"#utility.yul\":565:678   */\n      jump(tag_133)\n    tag_135:\n        /* \"#utility.yul\":712:713   */\n      0x00\n        /* \"#utility.yul\":703:709   */\n      dup5\n        /* \"#utility.yul\":698:701   */\n      dup5\n        /* \"#utility.yul\":694:710   */\n      add\n        /* \"#utility.yul\":687:714   */\n      mstore\n        /* \"#utility.yul\":536:720   */\n      pop\n        /* \"#utility.yul\":474:720   */\n      pop\n      pop\n      pop\n      jump\t// out\n        /* \"#utility.yul\":726:828   */\n    tag_104:\n        /* \"#utility.yul\":767:773   */\n      0x00\n        /* \"#utility.yul\":818:820   */\n      0x1f\n        /* \"#utility.yul\":814:821   */\n      not\n        /* \"#utility.yul\":809:811   */\n      0x1f\n        /* \"#utility.yul\":802:807   */\n      dup4\n        /* \"#utility.yul\":798:812   */\n      add\n        /* \"#utility.yul\":794:822   */\n      and\n        /* \"#utility.yul\":784:822   */\n      swap1\n      pop\n        /* \"#utility.yul\":726:828   */\n      swap2\n      swap1\n      pop\n      jump\t// out\n        /* \"#utility.yul\":834:1191   */\n    tag_105:\n        /* \"#utility.yul\":912:915   */\n      0x00\n        /* \"#utility.yul\":940:979   */\n      tag_138\n        /* \"#utility.yul\":973:978   */\n      dup3\n        /* \"#utility.yul\":940:979   */\n      tag_101\n      jump\t// in\n    tag_138:\n        /* \"#utility.yul\":995:1056   */\n      tag_139\n        /* \"#utility.yul\":1049:1055   */\n      dup2\n        /* \"#utility.yul\":1044:1047   */\n      dup6\n        /* \"#utility.yul\":995:1056   */\n      tag_102\n      jump\t// in\n    tag_139:\n        /* \"#utility.yul\":988:1056   */\n      swap4\n      pop\n        /* \"#utility.yul\":1065:1130   */\n      tag_140\n        /* \"#utility.yul\":1123:1129   */\n      dup2\n        /* \"#utility.yul\":1118:1121   */\n      dup6\n        /* \"#utility.yul\":1111:1115   */\n      0x20\n        /* \"#utility.yul\":1104:1109   */\n      dup7\n        /* \"#utility.yul\":1100:1116   */\n      add\n        /* \"#utility.yul\":1065:1130   */\n      tag_103\n      jump\t// in\n    tag_140:\n        /* \"#utility.yul\":1155:1184   */\n      tag_141\n        /* \"#utility.yul\":1177:1183   */\n      dup2\n        /* \"#utility.yul\":1155:1184   */\n      tag_104\n      jump\t// in\n    tag_141:\n        /* \"#utility.yul\":1150:1153   */\n      dup5\n        /* \"#utility.yul\":1146:1185   */\n      add\n        /* \"#utility.yul\":1139:1185   */\n      swap2\n      pop\n        /* \"#utility.yul\":916:1191   */\n      pop\n        /* \"#utility.yul\":834:1191   */\n      swap3\n      swap2\n      pop\n      pop\n      jump\t// out\n        /* \"#utility.yul\":1265:1883   */\n    tag_106:\n        /* \"#utility.yul\":1390:1393   */\n      0x00\n        /* \"#utility.yul\":1426:1430   */\n      0x40\n        /* \"#utility.yul\":1421:1424   */\n      dup4\n        /* \"#utility.yul\":1417:1431   */\n      add\n        /* \"#utility.yul\":1515:1519   */\n      0x00\n        /* \"#utility.yul\":1508:1513   */\n      dup4\n        /* \"#utility.yul\":1504:1520   */\n      add\n        /* \"#utility.yul\":1498:1521   */\n      mload\n        /* \"#utility.yul\":1534:1597   */\n      tag_143\n        /* \"#utility.yul\":1591:1595   */\n      0x00\n        /* \"#utility.yul\":1586:1589   */\n      dup7\n        /* \"#utility.yul\":1582:1596   */\n      add\n        /* \"#utility.yul\":1568:1580   */\n      dup3\n        /* \"#utility.yul\":1534:1597   */\n      tag_100\n      jump\t// in\n    tag_143:\n        /* \"#utility.yul\":1441:1607   */\n      pop\n        /* \"#utility.yul\":1693:1697   */\n      0x20\n        /* \"#utility.yul\":1686:1691   */\n      dup4\n        /* \"#utility.yul\":1682:1698   */\n      add\n        /* \"#utility.yul\":1676:1699   */\n      mload\n        /* \"#utility.yul\":1746:1749   */\n      dup5\n        /* \"#utility.yul\":1740:1744   */\n      dup3\n        /* \"#utility.yul\":1736:1750   */\n      sub\n        /* \"#utility.yul\":1729:1733   */\n      0x20\n        /* \"#utility.yul\":1724:1727   */\n      dup7\n        /* \"#utility.yul\":1720:1734   */\n      add\n        /* \"#utility.yul\":1713:1751   */\n      mstore\n        /* \"#utility.yul\":1772:1845   */\n      tag_144\n        /* \"#utility.yul\":1840:1844   */\n      dup3\n        /* \"#utility.yul\":1826:1838   */\n      dup3\n        /* \"#utility.yul\":1772:1845   */\n      tag_105\n      jump\t// in\n    tag_144:\n        /* \"#utility.yul\":1764:1845   */\n      swap2\n      pop\n        /* \"#utility.yul\":1617:1856   */\n      pop\n        /* \"#utility.yul\":1873:1877   */\n      dup1\n        /* \"#utility.yul\":1866:1877   */\n      swap2\n      pop\n        /* \"#utility.yul\":1395:1883   */\n      pop\n        /* \"#utility.yul\":1265:1883   */\n      swap3\n      swap2\n      pop\n      pop\n      jump\t// out\n        /* \"#utility.yul\":1889:2274   */\n    tag_9:\n        /* \"#utility.yul\":2038:2042   */\n      0x00\n        /* \"#utility.yul\":2076:2078   */\n      0x20\n        /* \"#utility.yul\":2065:2074   */\n      dup3\n        /* \"#utility.yul\":2061:2079   */\n      add\n        /* \"#utility.yul\":2053:2079   */\n      swap1\n      pop\n        /* \"#utility.yul\":2125:2134   */\n      dup2\n        /* \"#utility.yul\":2119:2123   */\n      dup2\n        /* \"#utility.yul\":2115:2135   */\n      sub\n        /* \"#utility.yul\":2111:2112   */\n      0x00\n        /* \"#utility.yul\":2100:2109   */\n      dup4\n        /* \"#utility.yul\":2096:2113   */\n      add\n        /* \"#utility.yul\":2089:2136   */\n      mstore\n        /* \"#utility.yul\":2153:2267   */\n      tag_146\n        /* \"#utility.yul\":2262:2266   */\n      dup2\n        /* \"#utility.yul\":2253:2259   */\n      dup5\n        /* \"#utility.yul\":2153:2267   */\n      tag_106\n      jump\t// in\n    tag_146:\n        /* \"#utility.yul\":2145:2267   */\n      swap1\n      pop\n        /* \"#utility.yul\":1889:2274   */\n      swap3\n      swap2\n      pop\n      pop\n      jump\t// out\n        /* \"#utility.yul\":2361:2478   */\n    tag_108:\n        /* \"#utility.yul\":2470:2471   */\n      0x00\n        /* \"#utility.yul\":2467:2468   */\n      dup1\n        /* \"#utility.yul\":2460:2472   */\n      revert\n        /* \"#utility.yul\":2607:2717   */\n    tag_110:\n        /* \"#utility.yul\":2691:2692   */\n      0x02\n        /* \"#utility.yul\":2684:2689   */\n      dup2\n        /* \"#utility.yul\":2681:2693   */\n      lt\n        /* \"#utility.yul\":2671:2711   */\n      tag_151\n      jumpi\n        /* \"#utility.yul\":2707:2708   */\n      0x00\n        /* \"#utility.yul\":2704:2705   */\n      dup1\n        /* \"#utility.yul\":2697:2709   */\n      revert\n        /* \"#utility.yul\":2671:2711   */\n    tag_151:\n        /* \"#utility.yul\":2607:2717   */\n      pop\n      jump\t// out\n        /* \"#utility.yul\":2723:2884   */\n    tag_111:\n        /* \"#utility.yul\":2780:2785   */\n      0x00\n        /* \"#utility.yul\":2818:2824   */\n      dup2\n        /* \"#utility.yul\":2805:2825   */\n      calldataload\n        /* \"#utility.yul\":2796:2825   */\n      swap1\n      pop\n        /* \"#utility.yul\":2834:2878   */\n      tag_153\n        /* \"#utility.yul\":2872:2877   */\n      dup2\n        /* \"#utility.yul\":2834:2878   */\n      tag_110\n      jump\t// in\n    tag_153:\n        /* \"#utility.yul\":2723:2884   */\n      swap3\n      swap2\n      pop\n      pop\n      jump\t// out\n        /* \"#utility.yul\":2890:3016   */\n    tag_112:\n        /* \"#utility.yul\":2927:2934   */\n      0x00\n        /* \"#utility.yul\":2967:3009   */\n      0xffffffffffffffffffffffffffffffffffffffff\n        /* \"#utility.yul\":2960:2965   */\n      dup3\n        /* \"#utility.yul\":2956:3010   */\n      and\n        /* \"#utility.yul\":2945:3010   */\n      swap1\n      pop\n        /* \"#utility.yul\":2890:3016   */\n      swap2\n      swap1\n      pop\n      jump\t// out\n        /* \"#utility.yul\":3022:3118   */\n    tag_113:\n        /* \"#utility.yul\":3059:3066   */\n      0x00\n        /* \"#utility.yul\":3088:3112   */\n      tag_156\n        /* \"#utility.yul\":3106:3111   */\n      dup3\n        /* \"#utility.yul\":3088:3112   */\n      tag_112\n      jump\t// in\n    tag_156:\n        /* \"#utility.yul\":3077:3112   */\n      swap1\n      pop\n        /* \"#utility.yul\":3022:3118   */\n      swap2\n      swap1\n      pop\n      jump\t// out\n        /* \"#utility.yul\":3124:3246   */\n    tag_114:\n        /* \"#utility.yul\":3197:3221   */\n      tag_158\n        /* \"#utility.yul\":3215:3220   */\n      dup2\n        /* \"#utility.yul\":3197:3221   */\n      tag_113\n      jump\t// in\n    tag_158:\n        /* \"#utility.yul\":3190:3195   */\n      dup2\n        /* \"#utility.yul\":3187:3222   */\n      eq\n        /* \"#utility.yul\":3177:3240   */\n      tag_159\n      jumpi\n        /* \"#utility.yul\":3236:3237   */\n      0x00\n        /* \"#utility.yul\":3233:3234   */\n      dup1\n        /* \"#utility.yul\":3226:3238   */\n      revert\n        /* \"#utility.yul\":3177:3240   */\n    tag_159:\n        /* \"#utility.yul\":3124:3246   */\n      pop\n      jump\t// out\n        /* \"#utility.yul\":3252:3391   */\n    tag_115:\n        /* \"#utility.yul\":3298:3303   */\n      0x00\n        /* \"#utility.yul\":3336:3342   */\n      dup2\n        /* \"#utility.yul\":3323:3343   */\n      calldataload\n        /* \"#utility.yul\":3314:3343   */\n      swap1\n      pop\n        /* \"#utility.yul\":3352:3385   */\n      tag_161\n        /* \"#utility.yul\":3379:3384   */\n      dup2\n        /* \"#utility.yul\":3352:3385   */\n      tag_114\n      jump\t// in\n    tag_161:\n        /* \"#utility.yul\":3252:3391   */\n      swap3\n      swap2\n      pop\n      pop\n      jump\t// out\n        /* \"#utility.yul\":3397:3893   */\n    tag_12:\n        /* \"#utility.yul\":3476:3482   */\n      0x00\n        /* \"#utility.yul\":3484:3490   */\n      dup1\n        /* \"#utility.yul\":3533:3535   */\n      0x40\n        /* \"#utility.yul\":3521:3530   */\n      dup4\n        /* \"#utility.yul\":3512:3519   */\n      dup6\n        /* \"#utility.yul\":3508:3531   */\n      sub\n        /* \"#utility.yul\":3504:3536   */\n      slt\n        /* \"#utility.yul\":3501:3620   */\n      iszero\n      tag_163\n      jumpi\n        /* \"#utility.yul\":3539:3618   */\n      tag_164\n      tag_108\n      jump\t// in\n    tag_164:\n        /* \"#utility.yul\":3501:3620   */\n    tag_163:\n        /* \"#utility.yul\":3659:3660   */\n      0x00\n        /* \"#utility.yul\":3684:3748   */\n      tag_165\n        /* \"#utility.yul\":3740:3747   */\n      dup6\n        /* \"#utility.yul\":3731:3737   */\n      dup3\n        /* \"#utility.yul\":3720:3729   */\n      dup7\n        /* \"#utility.yul\":3716:3738   */\n      add\n        /* \"#utility.yul\":3684:3748   */\n      tag_111\n      jump\t// in\n    tag_165:\n        /* \"#utility.yul\":3674:3748   */\n      swap3\n      pop\n        /* \"#utility.yul\":3630:3758   */\n      pop\n        /* \"#utility.yul\":3797:3799   */\n      0x20\n        /* \"#utility.yul\":3823:3876   */\n      tag_166\n        /* \"#utility.yul\":3868:3875   */\n      dup6\n        /* \"#utility.yul\":3859:3865   */\n      dup3\n        /* \"#utility.yul\":3848:3857   */\n      dup7\n        /* \"#utility.yul\":3844:3866   */\n      add\n        /* \"#utility.yul\":3823:3876   */\n      tag_115\n      jump\t// in\n    tag_166:\n        /* \"#utility.yul\":3813:3876   */\n      swap2\n      pop\n        /* \"#utility.yul\":3768:3886   */\n      pop\n        /* \"#utility.yul\":3397:3893   */\n      swap3\n      pop\n      swap3\n      swap1\n      pop\n      jump\t// out\n        /* \"#utility.yul\":3961:4637   */\n    tag_116:\n        /* \"#utility.yul\":4078:4081   */\n      0x00\n        /* \"#utility.yul\":4114:4118   */\n      0x40\n        /* \"#utility.yul\":4109:4112   */\n      dup4\n        /* \"#utility.yul\":4105:4119   */\n      add\n        /* \"#utility.yul\":4201:4205   */\n      0x00\n        /* \"#utility.yul\":4194:4199   */\n      dup4\n        /* \"#utility.yul\":4190:4206   */\n      add\n        /* \"#utility.yul\":4184:4207   */\n      mload\n        /* \"#utility.yul\":4254:4257   */\n      dup5\n        /* \"#utility.yul\":4248:4252   */\n      dup3\n        /* \"#utility.yul\":4244:4258   */\n      sub\n        /* \"#utility.yul\":4237:4241   */\n      0x00\n        /* \"#utility.yul\":4232:4235   */\n      dup7\n        /* \"#utility.yul\":4228:4242   */\n      add\n        /* \"#utility.yul\":4221:4259   */\n      mstore\n        /* \"#utility.yul\":4280:4353   */\n      tag_168\n        /* \"#utility.yul\":4348:4352   */\n      dup3\n        /* \"#utility.yul\":4334:4346   */\n      dup3\n        /* \"#utility.yul\":4280:4353   */\n      tag_105\n      jump\t// in\n    tag_168:\n        /* \"#utility.yul\":4272:4353   */\n      swap2\n      pop\n        /* \"#utility.yul\":4129:4364   */\n      pop\n        /* \"#utility.yul\":4447:4451   */\n      0x20\n        /* \"#utility.yul\":4440:4445   */\n      dup4\n        /* \"#utility.yul\":4436:4452   */\n      add\n        /* \"#utility.yul\":4430:4453   */\n      mload\n        /* \"#utility.yul\":4500:4503   */\n      dup5\n        /* \"#utility.yul\":4494:4498   */\n      dup3\n        /* \"#utility.yul\":4490:4504   */\n      sub\n        /* \"#utility.yul\":4483:4487   */\n      0x20\n        /* \"#utility.yul\":4478:4481   */\n      dup7\n        /* \"#utility.yul\":4474:4488   */\n      add\n        /* \"#utility.yul\":4467:4505   */\n      mstore\n        /* \"#utility.yul\":4526:4599   */\n      tag_169\n        /* \"#utility.yul\":4594:4598   */\n      dup3\n        /* \"#utility.yul\":4580:4592   */\n      dup3\n        /* \"#utility.yul\":4526:4599   */\n      tag_105\n      jump\t// in\n    tag_169:\n        /* \"#utility.yul\":4518:4599   */\n      swap2\n      pop\n        /* \"#utility.yul\":4374:4610   */\n      pop\n        /* \"#utility.yul\":4627:4631   */\n      dup1\n        /* \"#utility.yul\":4620:4631   */\n      swap2\n      pop\n        /* \"#utility.yul\":4083:4637   */\n      pop\n        /* \"#utility.yul\":3961:4637   */\n      swap3\n      swap2\n      pop\n      pop\n      jump\t// out\n        /* \"#utility.yul\":4643:5012   */\n    tag_17:\n        /* \"#utility.yul\":4784:4788   */\n      0x00\n        /* \"#utility.yul\":4822:4824   */\n      0x20\n        /* \"#utility.yul\":4811:4820   */\n      dup3\n        /* \"#utility.yul\":4807:4825   */\n      add\n        /* \"#utility.yul\":4799:4825   */\n      swap1\n      pop\n        /* \"#utility.yul\":4871:4880   */\n      dup2\n        /* \"#utility.yul\":4865:4869   */\n      dup2\n        /* \"#utility.yul\":4861:4881   */\n      sub\n        /* \"#utility.yul\":4857:4858   */\n      0x00\n        /* \"#utility.yul\":4846:4855   */\n      dup4\n        /* \"#utility.yul\":4842:4859   */\n      add\n        /* \"#utility.yul\":4835:4882   */\n      mstore\n        /* \"#utility.yul\":4899:5005   */\n      tag_171\n        /* \"#utility.yul\":5000:5004   */\n      dup2\n        /* \"#utility.yul\":4991:4997   */\n      dup5\n        /* \"#utility.yul\":4899:5005   */\n      tag_116\n      jump\t// in\n    tag_171:\n        /* \"#utility.yul\":4891:5005   */\n      swap1\n      pop\n        /* \"#utility.yul\":4643:5012   */\n      swap3\n      swap2\n      pop\n      pop\n      jump\t// out\n        /* \"#utility.yul\":5018:5198   */\n    tag_117:\n        /* \"#utility.yul\":5066:5143   */\n      0x4e487b7100000000000000000000000000000000000000000000000000000000\n        /* \"#utility.yul\":5063:5064   */\n      0x00\n        /* \"#utility.yul\":5056:5144   */\n      mstore\n        /* \"#utility.yul\":5163:5167   */\n      0x22\n        /* \"#utility.yul\":5160:5161   */\n      0x04\n        /* \"#utility.yul\":5153:5168   */\n      mstore\n        /* \"#utility.yul\":5187:5191   */\n      0x24\n        /* \"#utility.yul\":5184:5185   */\n      0x00\n        /* \"#utility.yul\":5177:5192   */\n      revert\n        /* \"#utility.yul\":5204:5524   */\n    tag_25:\n        /* \"#utility.yul\":5248:5254   */\n      0x00\n        /* \"#utility.yul\":5285:5286   */\n      0x02\n        /* \"#utility.yul\":5279:5283   */\n      dup3\n        /* \"#utility.yul\":5275:5287   */\n      div\n        /* \"#utility.yul\":5265:5287   */\n      swap1\n      pop\n        /* \"#utility.yul\":5332:5333   */\n      0x01\n        /* \"#utility.yul\":5326:5330   */\n      dup3\n        /* \"#utility.yul\":5322:5334   */\n      and\n        /* \"#utility.yul\":5353:5371   */\n      dup1\n        /* \"#utility.yul\":5343:5424   */\n      tag_174\n      jumpi\n        /* \"#utility.yul\":5409:5413   */\n      0x7f\n        /* \"#utility.yul\":5401:5407   */\n      dup3\n        /* \"#utility.yul\":5397:5414   */\n      and\n        /* \"#utility.yul\":5387:5414   */\n      swap2\n      pop\n        /* \"#utility.yul\":5343:5424   */\n    tag_174:\n        /* \"#utility.yul\":5471:5473   */\n      0x20\n        /* \"#utility.yul\":5463:5469   */\n      dup3\n        /* \"#utility.yul\":5460:5474   */\n      lt\n        /* \"#utility.yul\":5440:5458   */\n      dup2\n        /* \"#utility.yul\":5437:5475   */\n      sub\n        /* \"#utility.yul\":5434:5518   */\n      tag_175\n      jumpi\n        /* \"#utility.yul\":5490:5508   */\n      tag_176\n      tag_117\n      jump\t// in\n    tag_176:\n        /* \"#utility.yul\":5434:5518   */\n    tag_175:\n        /* \"#utility.yul\":5255:5524   */\n      pop\n        /* \"#utility.yul\":5204:5524   */\n      swap2\n      swap1\n      pop\n      jump\t// out\n        /* \"#utility.yul\":5530:5710   */\n    tag_33:\n        /* \"#utility.yul\":5578:5655   */\n      0x4e487b7100000000000000000000000000000000000000000000000000000000\n        /* \"#utility.yul\":5575:5576   */\n      0x00\n        /* \"#utility.yul\":5568:5656   */\n      mstore\n        /* \"#utility.yul\":5675:5679   */\n      0x21\n        /* \"#utility.yul\":5672:5673   */\n      0x04\n        /* \"#utility.yul\":5665:5680   */\n      mstore\n        /* \"#utility.yul\":5699:5703   */\n      0x24\n        /* \"#utility.yul\":5696:5697   */\n      0x00\n        /* \"#utility.yul\":5689:5704   */\n      revert\n        /* \"#utility.yul\":5716:5834   */\n    tag_118:\n        /* \"#utility.yul\":5803:5827   */\n      tag_179\n        /* \"#utility.yul\":5821:5826   */\n      dup2\n        /* \"#utility.yul\":5803:5827   */\n      tag_113\n      jump\t// in\n    tag_179:\n        /* \"#utility.yul\":5798:5801   */\n      dup3\n        /* \"#utility.yul\":5791:5828   */\n      mstore\n        /* \"#utility.yul\":5716:5834   */\n      pop\n      pop\n      jump\t// out\n        /* \"#utility.yul\":5840:5956   */\n    tag_119:\n        /* \"#utility.yul\":5924:5925   */\n      0x02\n        /* \"#utility.yul\":5917:5922   */\n      dup2\n        /* \"#utility.yul\":5914:5926   */\n      lt\n        /* \"#utility.yul\":5904:5950   */\n      tag_181\n      jumpi\n        /* \"#utility.yul\":5930:5948   */\n      tag_182\n      tag_33\n      jump\t// in\n    tag_182:\n        /* \"#utility.yul\":5904:5950   */\n    tag_181:\n        /* \"#utility.yul\":5840:5956   */\n      pop\n      jump\t// out\n        /* \"#utility.yul\":5962:6095   */\n    tag_120:\n        /* \"#utility.yul\":6010:6017   */\n      0x00\n        /* \"#utility.yul\":6039:6044   */\n      dup2\n        /* \"#utility.yul\":6028:6044   */\n      swap1\n      pop\n        /* \"#utility.yul\":6045:6089   */\n      tag_184\n        /* \"#utility.yul\":6083:6088   */\n      dup3\n        /* \"#utility.yul\":6045:6089   */\n      tag_119\n      jump\t// in\n    tag_184:\n        /* \"#utility.yul\":5962:6095   */\n      swap2\n      swap1\n      pop\n      jump\t// out\n        /* \"#utility.yul\":6101:6234   */\n    tag_121:\n        /* \"#utility.yul\":6160:6169   */\n      0x00\n        /* \"#utility.yul\":6193:6228   */\n      tag_186\n        /* \"#utility.yul\":6222:6227   */\n      dup3\n        /* \"#utility.yul\":6193:6228   */\n      tag_120\n      jump\t// in\n    tag_186:\n        /* \"#utility.yul\":6180:6228   */\n      swap1\n      pop\n        /* \"#utility.yul\":6101:6234   */\n      swap2\n      swap1\n      pop\n      jump\t// out\n        /* \"#utility.yul\":6240:6389   */\n    tag_122:\n        /* \"#utility.yul\":6336:6382   */\n      tag_188\n        /* \"#utility.yul\":6376:6381   */\n      dup2\n        /* \"#utility.yul\":6336:6382   */\n      tag_121\n      jump\t// in\n    tag_188:\n        /* \"#utility.yul\":6331:6334   */\n      dup3\n        /* \"#utility.yul\":6324:6383   */\n      mstore\n        /* \"#utility.yul\":6240:6389   */\n      pop\n      pop\n      jump\t// out\n        /* \"#utility.yul\":6395:6745   */\n    tag_46:\n        /* \"#utility.yul\":6525:6529   */\n      0x00\n        /* \"#utility.yul\":6563:6565   */\n      0x40\n        /* \"#utility.yul\":6552:6561   */\n      dup3\n        /* \"#utility.yul\":6548:6566   */\n      add\n        /* \"#utility.yul\":6540:6566   */\n      swap1\n      pop\n        /* \"#utility.yul\":6576:6647   */\n      tag_190\n        /* \"#utility.yul\":6644:6645   */\n      0x00\n        /* \"#utility.yul\":6633:6642   */\n      dup4\n        /* \"#utility.yul\":6629:6646   */\n      add\n        /* \"#utility.yul\":6620:6626   */\n      dup6\n        /* \"#utility.yul\":6576:6647   */\n      tag_118\n      jump\t// in\n    tag_190:\n        /* \"#utility.yul\":6657:6738   */\n      tag_191\n        /* \"#utility.yul\":6734:6736   */\n      0x20\n        /* \"#utility.yul\":6723:6732   */\n      dup4\n        /* \"#utility.yul\":6719:6737   */\n      add\n        /* \"#utility.yul\":6710:6716   */\n      dup5\n        /* \"#utility.yul\":6657:6738   */\n      tag_122\n      jump\t// in\n    tag_191:\n        /* \"#utility.yul\":6395:6745   */\n      swap4\n      swap3\n      pop\n      pop\n      pop\n      jump\t// out\n        /* \"#utility.yul\":6751:6920   */\n    tag_123:\n        /* \"#utility.yul\":6835:6846   */\n      0x00\n        /* \"#utility.yul\":6869:6875   */\n      dup3\n        /* \"#utility.yul\":6864:6867   */\n      dup3\n        /* \"#utility.yul\":6857:6876   */\n      mstore\n        /* \"#utility.yul\":6909:6913   */\n      0x20\n        /* \"#utility.yul\":6904:6907   */\n      dup3\n        /* \"#utility.yul\":6900:6914   */\n      add\n        /* \"#utility.yul\":6885:6914   */\n      swap1\n      pop\n        /* \"#utility.yul\":6751:6920   */\n      swap3\n      swap2\n      pop\n      pop\n      jump\t// out\n        /* \"#utility.yul\":6926:7106   */\n    tag_124:\n        /* \"#utility.yul\":7066:7098   */\n      0x4f6e6c79206f776e65722063616e20617574686f72697a652075736572730000\n        /* \"#utility.yul\":7062:7063   */\n      0x00\n        /* \"#utility.yul\":7054:7060   */\n      dup3\n        /* \"#utility.yul\":7050:7064   */\n      add\n        /* \"#utility.yul\":7043:7099   */\n      mstore\n        /* \"#utility.yul\":6926:7106   */\n      pop\n      jump\t// out\n        /* \"#utility.yul\":7112:7478   */\n    tag_125:\n        /* \"#utility.yul\":7254:7257   */\n      0x00\n        /* \"#utility.yul\":7275:7342   */\n      tag_195\n        /* \"#utility.yul\":7339:7341   */\n      0x1e\n        /* \"#utility.yul\":7334:7337   */\n      dup4\n        /* \"#utility.yul\":7275:7342   */\n      tag_123\n      jump\t// in\n    tag_195:\n        /* \"#utility.yul\":7268:7342   */\n      swap2\n      pop\n        /* \"#utility.yul\":7351:7444   */\n      tag_196\n        /* \"#utility.yul\":7440:7443   */\n      dup3\n        /* \"#utility.yul\":7351:7444   */\n      tag_124\n      jump\t// in\n    tag_196:\n        /* \"#utility.yul\":7469:7471   */\n      0x20\n        /* \"#utility.yul\":7464:7467   */\n      dup3\n        /* \"#utility.yul\":7460:7472   */\n      add\n        /* \"#utility.yul\":7453:7472   */\n      swap1\n      pop\n        /* \"#utility.yul\":7112:7478   */\n      swap2\n      swap1\n      pop\n      jump\t// out\n        /* \"#utility.yul\":7484:7903   */\n    tag_50:\n        /* \"#utility.yul\":7650:7654   */\n      0x00\n        /* \"#utility.yul\":7688:7690   */\n      0x20\n        /* \"#utility.yul\":7677:7686   */\n      dup3\n        /* \"#utility.yul\":7673:7691   */\n      add\n        /* \"#utility.yul\":7665:7691   */\n      swap1\n      pop\n        /* \"#utility.yul\":7737:7746   */\n      dup2\n        /* \"#utility.yul\":7731:7735   */\n      dup2\n        /* \"#utility.yul\":7727:7747   */\n      sub\n        /* \"#utility.yul\":7723:7724   */\n      0x00\n        /* \"#utility.yul\":7712:7721   */\n      dup4\n        /* \"#utility.yul\":7708:7725   */\n      add\n        /* \"#utility.yul\":7701:7748   */\n      mstore\n        /* \"#utility.yul\":7765:7896   */\n      tag_198\n        /* \"#utility.yul\":7891:7895   */\n      dup2\n        /* \"#utility.yul\":7765:7896   */\n      tag_125\n      jump\t// in\n    tag_198:\n        /* \"#utility.yul\":7757:7896   */\n      swap1\n      pop\n        /* \"#utility.yul\":7484:7903   */\n      swap2\n      swap1\n      pop\n      jump\t// out\n\n    auxdata: 0xa264697066735822122054eead4bf4f7db85e315bfef1d24515e4ab947aae6bc292f7c68ae1151ecc26664736f6c63430008120033\n}\n",
				"bytecode": {
					"linkReferences": {},
					"object": "60806040523480156200001157600080fd5b506040516200140c3803806200140c8339818101604052810190620000379190620002d5565b604051806040016040528085815260200184815250600080820151816000019081620000649190620005e5565b5060208201518160010190816200007c9190620005e5565b509050506040518060400160405280838152602001828152506002600082015181600001556020820151816001019081620000b89190620005e5565b5090505033600460006101000a81548173ffffffffffffffffffffffffffffffffffffffff021916908373ffffffffffffffffffffffffffffffffffffffff16021790555050505050620006cc565b6000604051905090565b600080fd5b600080fd5b600080fd5b600080fd5b6000601f19601f8301169050919050565b7f4e487b7100000000000000000000000000000000000000000000000000000000600052604160045260246000fd5b620001708262000125565b810181811067ffffffffffffffff8211171562000192576200019162000136565b5b80604052505050565b6000620001a762000107565b9050620001b5828262000165565b919050565b600067ffffffffffffffff821115620001d857620001d762000136565b5b620001e38262000125565b9050602081019050919050565b60005b8381101562000210578082015181840152602081019050620001f3565b60008484015250505050565b6000620002336200022d84620001ba565b6200019b565b90508281526020810184848401111562000252576200025162000120565b5b6200025f848285620001f0565b509392505050565b600082601f8301126200027f576200027e6200011b565b5b8151620002918482602086016200021c565b91505092915050565b6000819050919050565b620002af816200029a565b8114620002bb57600080fd5b50565b600081519050620002cf81620002a4565b92915050565b60008060008060808587031215620002f257620002f162000111565b5b600085015167ffffffffffffffff81111562000313576200031262000116565b5b620003218782880162000267565b945050602085015167ffffffffffffffff81111562000345576200034462000116565b5b620003538782880162000267565b93505060406200036687828801620002be565b925050606085015167ffffffffffffffff8111156200038a576200038962000116565b5b620003988782880162000267565b91505092959194509250565b600081519050919050565b7f4e487b7100000000000000000000000000000000000000000000000000000000600052602260045260246000fd5b60006002820490506001821680620003f757607f821691505b6020821081036200040d576200040c620003af565b5b50919050565b60008190508160005260206000209050919050565b60006020601f8301049050919050565b600082821b905092915050565b600060088302620004777fffffffffffffffffffffffffffffffffffffffffffffffffffffffffffffffff8262000438565b62000483868362000438565b95508019841693508086168417925050509392505050565b6000819050919050565b6000620004c6620004c0620004ba846200029a565b6200049b565b6200029a565b9050919050565b6000819050919050565b620004e283620004a5565b620004fa620004f182620004cd565b84845462000445565b825550505050565b600090565b6200051162000502565b6200051e818484620004d7565b505050565b5b8181101562000546576200053a60008262000507565b60018101905062000524565b5050565b601f82111562000595576200055f8162000413565b6200056a8462000428565b810160208510156200057a578190505b62000592620005898562000428565b83018262000523565b50505b505050565b600082821c905092915050565b6000620005ba600019846008026200059a565b1980831691505092915050565b6000620005d58383620005a7565b9150826002028217905092915050565b620005f082620003a4565b67ffffffffffffffff8111156200060c576200060b62000136565b5b620006188254620003de565b620006258282856200054a565b600060209050601f8311600181146200065d576000841562000648578287015190505b620006548582620005c7565b865550620006c4565b601f1984166200066d8662000413565b60005b82811015620006975784890151825560018201915060208501945060208101905062000670565b86831015620006b75784890151620006b3601f891682620005a7565b8355505b6001600288020188555050505b505050505050565b610d3080620006dc6000396000f3fe608060405234801561001057600080fd5b50600436106100415760003560e01c806381f539ff146100465780639f0010fc146100645780639f999da314610080575b600080fd5b61004e61009e565b60405161005b9190610a1e565b60405180910390f35b61007e60048036038101906100799190610ac8565b610378565b005b61008861051a565b6040516100959190610b4c565b60405180910390f35b6100a6610904565b6001600460009054906101000a900473ffffffffffffffffffffffffffffffffffffffff1673ffffffffffffffffffffffffffffffffffffffff163373ffffffffffffffffffffffffffffffffffffffff16148061014d5750600660003373ffffffffffffffffffffffffffffffffffffffff1673ffffffffffffffffffffffffffffffffffffffff16815260200190815260200160002060009054906101000a900460ff165b156102025760026040518060400160405290816000820154815260200160018201805461017990610b9d565b80601f01602080910402602001604051908101604052809291908181526020018280546101a590610b9d565b80156101f25780601f106101c7576101008083540402835291602001916101f2565b820191906000526020600020905b8154815290600101906020018083116101d557829003601f168201915b5050505050815250509150610374565b6000600181111561021657610215610bce565b5b81600181111561022957610228610bce565b5b14801561027f5750600560003373ffffffffffffffffffffffffffffffffffffffff1673ffffffffffffffffffffffffffffffffffffffff16815260200190815260200160002060009054906101000a900460ff165b15610334576002604051806040016040529081600082015481526020016001820180546102ab90610b9d565b80601f01602080910402602001604051908101604052809291908181526020018280546102d790610b9d565b80156103245780601f106102f957610100808354040283529160200191610324565b820191906000526020600020905b81548152906001019060200180831161030757829003601f168201915b5050505050815250509150610373565b33816040517f301d703b00000000000000000000000000000000000000000000000000000000815260040161036a929190610c54565b60405180910390fd5b5b5090565b600460009054906101000a900473ffffffffffffffffffffffffffffffffffffffff1673ffffffffffffffffffffffffffffffffffffffff163373ffffffffffffffffffffffffffffffffffffffff1614610408576040517f08c379a00000000000000000000000000000000000000000000000000000000081526004016103ff90610cda565b60405180910390fd5b6000600181111561041c5761041b610bce565b5b82600181111561042f5761042e610bce565b5b03610491576001600560008373ffffffffffffffffffffffffffffffffffffffff1673ffffffffffffffffffffffffffffffffffffffff16815260200190815260200160002060006101000a81548160ff021916908315150217905550610516565b6001808111156104a4576104a3610bce565b5b8260018111156104b7576104b6610bce565b5b03610515576001600660008373ffffffffffffffffffffffffffffffffffffffff1673ffffffffffffffffffffffffffffffffffffffff16815260200190815260200160002060006101000a81548160ff0219169083151502179055505b5b5050565b61052261091e565b6000600460009054906101000a900473ffffffffffffffffffffffffffffffffffffffff1673ffffffffffffffffffffffffffffffffffffffff163373ffffffffffffffffffffffffffffffffffffffff1614806105c95750600660003373ffffffffffffffffffffffffffffffffffffffff1673ffffffffffffffffffffffffffffffffffffffff16815260200190815260200160002060009054906101000a900460ff165b156107065760006040518060400160405290816000820180546105eb90610b9d565b80601f016020809104026020016040519081016040528092919081815260200182805461061790610b9d565b80156106645780601f1061063957610100808354040283529160200191610664565b820191906000526020600020905b81548152906001019060200180831161064757829003601f168201915b5050505050815260200160018201805461067d90610b9d565b80601f01602080910402602001604051908101604052809291908181526020018280546106a990610b9d565b80156106f65780601f106106cb576101008083540402835291602001916106f6565b820191906000526020600020905b8154815290600101906020018083116106d957829003601f168201915b5050505050815250509150610900565b6000600181111561071a57610719610bce565b5b81600181111561072d5761072c610bce565b5b1480156107835750600560003373ffffffffffffffffffffffffffffffffffffffff1673ffffffffffffffffffffffffffffffffffffffff16815260200190815260200160002060009054906101000a900460ff165b156108c05760006040518060400160405290816000820180546107a590610b9d565b80601f01602080910402602001604051908101604052809291908181526020018280546107d190610b9d565b801561081e5780601f106107f35761010080835404028352916020019161081e565b820191906000526020600020905b81548152906001019060200180831161080157829003601f168201915b5050505050815260200160018201805461083790610b9d565b80601f016020809104026020016040519081016040528092919081815260200182805461086390610b9d565b80156108b05780601f10610885576101008083540402835291602001916108b0565b820191906000526020600020905b81548152906001019060200180831161089357829003601f168201915b50505050508152505091506108ff565b33816040517f301d703b0000000000000000000000000000000000000000000000000000000081526004016108f6929190610c54565b60405180910390fd5b5b5090565b604051806040016040528060008152602001606081525090565b604051806040016040528060608152602001606081525090565b6000819050919050565b61094b81610938565b82525050565b600081519050919050565b600082825260208201905092915050565b60005b8381101561098b578082015181840152602081019050610970565b60008484015250505050565b6000601f19601f8301169050919050565b60006109b382610951565b6109bd818561095c565b93506109cd81856020860161096d565b6109d681610997565b840191505092915050565b60006040830160008301516109f96000860182610942565b5060208301518482036020860152610a1182826109a8565b9150508091505092915050565b60006020820190508181036000830152610a3881846109e1565b905092915050565b600080fd5b60028110610a5257600080fd5b50565b600081359050610a6481610a45565b92915050565b600073ffffffffffffffffffffffffffffffffffffffff82169050919050565b6000610a9582610a6a565b9050919050565b610aa581610a8a565b8114610ab057600080fd5b50565b600081359050610ac281610a9c565b92915050565b60008060408385031215610adf57610ade610a40565b5b6000610aed85828601610a55565b9250506020610afe85828601610ab3565b9150509250929050565b60006040830160008301518482036000860152610b2582826109a8565b91505060208301518482036020860152610b3f82826109a8565b9150508091505092915050565b60006020820190508181036000830152610b668184610b08565b905092915050565b7f4e487b7100000000000000000000000000000000000000000000000000000000600052602260045260246000fd5b60006002820490506001821680610bb557607f821691505b602082108103610bc857610bc7610b6e565b5b50919050565b7f4e487b7100000000000000000000000000000000000000000000000000000000600052602160045260246000fd5b610c0681610a8a565b82525050565b60028110610c1d57610c1c610bce565b5b50565b6000819050610c2e82610c0c565b919050565b6000610c3e82610c20565b9050919050565b610c4e81610c33565b82525050565b6000604082019050610c696000830185610bfd565b610c766020830184610c45565b9392505050565b600082825260208201905092915050565b7f4f6e6c79206f776e65722063616e20617574686f72697a652075736572730000600082015250565b6000610cc4601e83610c7d565b9150610ccf82610c8e565b602082019050919050565b60006020820190508181036000830152610cf381610cb7565b905091905056fea264697066735822122054eead4bf4f7db85e315bfef1d24515e4ab947aae6bc292f7c68ae1151ecc26664736f6c63430008120033",
					"opcodes": "PUSH1 0x80 PUSH1 0x40 MSTORE CALLVALUE DUP1 ISZERO PUSH3 0x11 JUMPI PUSH1 0x0 DUP1 REVERT JUMPDEST POP PUSH1 0x40 MLOAD PUSH3 0x140C CODESIZE SUB DUP1 PUSH3 0x140C DUP4 CODECOPY DUP2 DUP2 ADD PUSH1 0x40 MSTORE DUP2 ADD SWAP1 PUSH3 0x37 SWAP2 SWAP1 PUSH3 0x2D5 JUMP JUMPDEST PUSH1 0x40 MLOAD DUP1 PUSH1 0x40 ADD PUSH1 0x40 MSTORE DUP1 DUP6 DUP2 MSTORE PUSH1 0x20 ADD DUP5 DUP2 MSTORE POP PUSH1 0x0 DUP1 DUP3 ADD MLOAD DUP2 PUSH1 0x0 ADD SWAP1 DUP2 PUSH3 0x64 SWAP2 SWAP1 PUSH3 0x5E5 JUMP JUMPDEST POP PUSH1 0x20 DUP3 ADD MLOAD DUP2 PUSH1 0x1 ADD SWAP1 DUP2 PUSH3 0x7C SWAP2 SWAP1 PUSH3 0x5E5 JUMP JUMPDEST POP SWAP1 POP POP PUSH1 0x40 MLOAD DUP1 PUSH1 0x40 ADD PUSH1 0x40 MSTORE DUP1 DUP4 DUP2 MSTORE PUSH1 0x20 ADD DUP3 DUP2 MSTORE POP PUSH1 0x2 PUSH1 0x0 DUP3 ADD MLOAD DUP2 PUSH1 0x0 ADD SSTORE PUSH1 0x20 DUP3 ADD MLOAD DUP2 PUSH1 0x1 ADD SWAP1 DUP2 PUSH3 0xB8 SWAP2 SWAP1 PUSH3 0x5E5 JUMP JUMPDEST POP SWAP1 POP POP CALLER PUSH1 0x4 PUSH1 0x0 PUSH2 0x100 EXP DUP2 SLOAD DUP2 PUSH20 0xFFFFFFFFFFFFFFFFFFFFFFFFFFFFFFFFFFFFFFFF MUL NOT AND SWAP1 DUP4 PUSH20 0xFFFFFFFFFFFFFFFFFFFFFFFFFFFFFFFFFFFFFFFF AND MUL OR SWAP1 SSTORE POP POP POP POP POP PUSH3 0x6CC JUMP JUMPDEST PUSH1 0x0 PUSH1 0x40 MLOAD SWAP1 POP SWAP1 JUMP JUMPDEST PUSH1 0x0 DUP1 REVERT JUMPDEST PUSH1 0x0 DUP1 REVERT JUMPDEST PUSH1 0x0 DUP1 REVERT JUMPDEST PUSH1 0x0 DUP1 REVERT JUMPDEST PUSH1 0x0 PUSH1 0x1F NOT PUSH1 0x1F DUP4 ADD AND SWAP1 POP SWAP2 SWAP1 POP JUMP JUMPDEST PUSH32 0x4E487B7100000000000000000000000000000000000000000000000000000000 PUSH1 0x0 MSTORE PUSH1 0x41 PUSH1 0x4 MSTORE PUSH1 0x24 PUSH1 0x0 REVERT JUMPDEST PUSH3 0x170 DUP3 PUSH3 0x125 JUMP JUMPDEST DUP2 ADD DUP2 DUP2 LT PUSH8 0xFFFFFFFFFFFFFFFF DUP3 GT OR ISZERO PUSH3 0x192 JUMPI PUSH3 0x191 PUSH3 0x136 JUMP JUMPDEST JUMPDEST DUP1 PUSH1 0x40 MSTORE POP POP POP JUMP JUMPDEST PUSH1 0x0 PUSH3 0x1A7 PUSH3 0x107 JUMP JUMPDEST SWAP1 POP PUSH3 0x1B5 DUP3 DUP3 PUSH3 0x165 JUMP JUMPDEST SWAP2 SWAP1 POP JUMP JUMPDEST PUSH1 0x0 PUSH8 0xFFFFFFFFFFFFFFFF DUP3 GT ISZERO PUSH3 0x1D8 JUMPI PUSH3 0x1D7 PUSH3 0x136 JUMP JUMPDEST JUMPDEST PUSH3 0x1E3 DUP3 PUSH3 0x125 JUMP JUMPDEST SWAP1 POP PUSH1 0x20 DUP2 ADD SWAP1 POP SWAP2 SWAP1 POP JUMP JUMPDEST PUSH1 0x0 JUMPDEST DUP4 DUP2 LT ISZERO PUSH3 0x210 JUMPI DUP1 DUP3 ADD MLOAD DUP2 DUP5 ADD MSTORE PUSH1 0x20 DUP2 ADD SWAP1 POP PUSH3 0x1F3 JUMP JUMPDEST PUSH1 0x0 DUP5 DUP5 ADD MSTORE POP POP POP POP JUMP JUMPDEST PUSH1 0x0 PUSH3 0x233 PUSH3 0x22D DUP5 PUSH3 0x1BA JUMP JUMPDEST PUSH3 0x19B JUMP JUMPDEST SWAP1 POP DUP3 DUP2 MSTORE PUSH1 0x20 DUP2 ADD DUP5 DUP5 DUP5 ADD GT ISZERO PUSH3 0x252 JUMPI PUSH3 0x251 PUSH3 0x120 JUMP JUMPDEST JUMPDEST PUSH3 0x25F DUP5 DUP3 DUP6 PUSH3 0x1F0 JUMP JUMPDEST POP SWAP4 SWAP3 POP POP POP JUMP JUMPDEST PUSH1 0x0 DUP3 PUSH1 0x1F DUP4 ADD SLT PUSH3 0x27F JUMPI PUSH3 0x27E PUSH3 0x11B JUMP JUMPDEST JUMPDEST DUP2 MLOAD PUSH3 0x291 DUP5 DUP3 PUSH1 0x20 DUP7 ADD PUSH3 0x21C JUMP JUMPDEST SWAP2 POP POP SWAP3 SWAP2 POP POP JUMP JUMPDEST PUSH1 0x0 DUP2 SWAP1 POP SWAP2 SWAP1 POP JUMP JUMPDEST PUSH3 0x2AF DUP2 PUSH3 0x29A JUMP JUMPDEST DUP2 EQ PUSH3 0x2BB JUMPI PUSH1 0x0 DUP1 REVERT JUMPDEST POP JUMP JUMPDEST PUSH1 0x0 DUP2 MLOAD SWAP1 POP PUSH3 0x2CF DUP2 PUSH3 0x2A4 JUMP JUMPDEST SWAP3 SWAP2 POP POP JUMP JUMPDEST PUSH1 0x0 DUP1 PUSH1 0x0 DUP1 PUSH1 0x80 DUP6 DUP8 SUB SLT ISZERO PUSH3 0x2F2 JUMPI PUSH3 0x2F1 PUSH3 0x111 JUMP JUMPDEST JUMPDEST PUSH1 0x0 DUP6 ADD MLOAD PUSH8 0xFFFFFFFFFFFFFFFF DUP2 GT ISZERO PUSH3 0x313 JUMPI PUSH3 0x312 PUSH3 0x116 JUMP JUMPDEST JUMPDEST PUSH3 0x321 DUP8 DUP3 DUP9 ADD PUSH3 0x267 JUMP JUMPDEST SWAP5 POP POP PUSH1 0x20 DUP6 ADD MLOAD PUSH8 0xFFFFFFFFFFFFFFFF DUP2 GT ISZERO PUSH3 0x345 JUMPI PUSH3 0x344 PUSH3 0x116 JUMP JUMPDEST JUMPDEST PUSH3 0x353 DUP8 DUP3 DUP9 ADD PUSH3 0x267 JUMP JUMPDEST SWAP4 POP POP PUSH1 0x40 PUSH3 0x366 DUP8 DUP3 DUP9 ADD PUSH3 0x2BE JUMP JUMPDEST SWAP3 POP POP PUSH1 0x60 DUP6 ADD MLOAD PUSH8 0xFFFFFFFFFFFFFFFF DUP2 GT ISZERO PUSH3 0x38A JUMPI PUSH3 0x389 PUSH3 0x116 JUMP JUMPDEST JUMPDEST PUSH3 0x398 DUP8 DUP3 DUP9 ADD PUSH3 0x267 JUMP JUMPDEST SWAP2 POP POP SWAP3 SWAP6 SWAP2 SWAP5 POP SWAP3 POP JUMP JUMPDEST PUSH1 0x0 DUP2 MLOAD SWAP1 POP SWAP2 SWAP1 POP JUMP JUMPDEST PUSH32 0x4E487B7100000000000000000000000000000000000000000000000000000000 PUSH1 0x0 MSTORE PUSH1 0x22 PUSH1 0x4 MSTORE PUSH1 0x24 PUSH1 0x0 REVERT JUMPDEST PUSH1 0x0 PUSH1 0x2 DUP3 DIV SWAP1 POP PUSH1 0x1 DUP3 AND DUP1 PUSH3 0x3F7 JUMPI PUSH1 0x7F DUP3 AND SWAP2 POP JUMPDEST PUSH1 0x20 DUP3 LT DUP2 SUB PUSH3 0x40D JUMPI PUSH3 0x40C PUSH3 0x3AF JUMP JUMPDEST JUMPDEST POP SWAP2 SWAP1 POP JUMP JUMPDEST PUSH1 0x0 DUP2 SWAP1 POP DUP2 PUSH1 0x0 MSTORE PUSH1 0x20 PUSH1 0x0 KECCAK256 SWAP1 POP SWAP2 SWAP1 POP JUMP JUMPDEST PUSH1 0x0 PUSH1 0x20 PUSH1 0x1F DUP4 ADD DIV SWAP1 POP SWAP2 SWAP1 POP JUMP JUMPDEST PUSH1 0x0 DUP3 DUP3 SHL SWAP1 POP SWAP3 SWAP2 POP POP JUMP JUMPDEST PUSH1 0x0 PUSH1 0x8 DUP4 MUL PUSH3 0x477 PUSH32 0xFFFFFFFFFFFFFFFFFFFFFFFFFFFFFFFFFFFFFFFFFFFFFFFFFFFFFFFFFFFFFFFF DUP3 PUSH3 0x438 JUMP JUMPDEST PUSH3 0x483 DUP7 DUP4 PUSH3 0x438 JUMP JUMPDEST SWAP6 POP DUP1 NOT DUP5 AND SWAP4 POP DUP1 DUP7 AND DUP5 OR SWAP3 POP POP POP SWAP4 SWAP3 POP POP POP JUMP JUMPDEST PUSH1 0x0 DUP2 SWAP1 POP SWAP2 SWAP1 POP JUMP JUMPDEST PUSH1 0x0 PUSH3 0x4C6 PUSH3 0x4C0 PUSH3 0x4BA DUP5 PUSH3 0x29A JUMP JUMPDEST PUSH3 0x49B JUMP JUMPDEST PUSH3 0x29A JUMP JUMPDEST SWAP1 POP SWAP2 SWAP1 POP JUMP JUMPDEST PUSH1 0x0 DUP2 SWAP1 POP SWAP2 SWAP1 POP JUMP JUMPDEST PUSH3 0x4E2 DUP4 PUSH3 0x4A5 JUMP JUMPDEST PUSH3 0x4FA PUSH3 0x4F1 DUP3 PUSH3 0x4CD JUMP JUMPDEST DUP5 DUP5 SLOAD PUSH3 0x445 JUMP JUMPDEST DUP3 SSTORE POP POP POP POP JUMP JUMPDEST PUSH1 0x0 SWAP1 JUMP JUMPDEST PUSH3 0x511 PUSH3 0x502 JUMP JUMPDEST PUSH3 0x51E DUP2 DUP5 DUP5 PUSH3 0x4D7 JUMP JUMPDEST POP POP POP JUMP JUMPDEST JUMPDEST DUP2 DUP2 LT ISZERO PUSH3 0x546 JUMPI PUSH3 0x53A PUSH1 0x0 DUP3 PUSH3 0x507 JUMP JUMPDEST PUSH1 0x1 DUP2 ADD SWAP1 POP PUSH3 0x524 JUMP JUMPDEST POP POP JUMP JUMPDEST PUSH1 0x1F DUP3 GT ISZERO PUSH3 0x595 JUMPI PUSH3 0x55F DUP2 PUSH3 0x413 JUMP JUMPDEST PUSH3 0x56A DUP5 PUSH3 0x428 JUMP JUMPDEST DUP2 ADD PUSH1 0x20 DUP6 LT ISZERO PUSH3 0x57A JUMPI DUP2 SWAP1 POP JUMPDEST PUSH3 0x592 PUSH3 0x589 DUP6 PUSH3 0x428 JUMP JUMPDEST DUP4 ADD DUP3 PUSH3 0x523 JUMP JUMPDEST POP POP JUMPDEST POP POP POP JUMP JUMPDEST PUSH1 0x0 DUP3 DUP3 SHR SWAP1 POP SWAP3 SWAP2 POP POP JUMP JUMPDEST PUSH1 0x0 PUSH3 0x5BA PUSH1 0x0 NOT DUP5 PUSH1 0x8 MUL PUSH3 0x59A JUMP JUMPDEST NOT DUP1 DUP4 AND SWAP2 POP POP SWAP3 SWAP2 POP POP JUMP JUMPDEST PUSH1 0x0 PUSH3 0x5D5 DUP4 DUP4 PUSH3 0x5A7 JUMP JUMPDEST SWAP2 POP DUP3 PUSH1 0x2 MUL DUP3 OR SWAP1 POP SWAP3 SWAP2 POP POP JUMP JUMPDEST PUSH3 0x5F0 DUP3 PUSH3 0x3A4 JUMP JUMPDEST PUSH8 0xFFFFFFFFFFFFFFFF DUP2 GT ISZERO PUSH3 0x60C JUMPI PUSH3 0x60B PUSH3 0x136 JUMP JUMPDEST JUMPDEST PUSH3 0x618 DUP3 SLOAD PUSH3 0x3DE JUMP JUMPDEST PUSH3 0x625 DUP3 DUP3 DUP6 PUSH3 0x54A JUMP JUMPDEST PUSH1 0x0 PUSH1 0x20 SWAP1 POP PUSH1 0x1F DUP4 GT PUSH1 0x1 DUP2 EQ PUSH3 0x65D JUMPI PUSH1 0x0 DUP5 ISZERO PUSH3 0x648 JUMPI DUP3 DUP8 ADD MLOAD SWAP1 POP JUMPDEST PUSH3 0x654 DUP6 DUP3 PUSH3 0x5C7 JUMP JUMPDEST DUP7 SSTORE POP PUSH3 0x6C4 JUMP JUMPDEST PUSH1 0x1F NOT DUP5 AND PUSH3 0x66D DUP7 PUSH3 0x413 JUMP JUMPDEST PUSH1 0x0 JUMPDEST DUP3 DUP2 LT ISZERO PUSH3 0x697 JUMPI DUP5 DUP10 ADD MLOAD DUP3 SSTORE PUSH1 0x1 DUP3 ADD SWAP2 POP PUSH1 0x20 DUP6 ADD SWAP5 POP PUSH1 0x20 DUP2 ADD SWAP1 POP PUSH3 0x670 JUMP JUMPDEST DUP7 DUP4 LT ISZERO PUSH3 0x6B7 JUMPI DUP5 DUP10 ADD MLOAD PUSH3 0x6B3 PUSH1 0x1F DUP10 AND DUP3 PUSH3 0x5A7 JUMP JUMPDEST DUP4 SSTORE POP JUMPDEST PUSH1 0x1 PUSH1 0x2 DUP9 MUL ADD DUP9 SSTORE POP POP POP JUMPDEST POP POP POP POP POP POP JUMP JUMPDEST PUSH2 0xD30 DUP1 PUSH3 0x6DC PUSH1 0x0 CODECOPY PUSH1 0x0 RETURN INVALID PUSH1 0x80 PUSH1 0x40 MSTORE CALLVALUE DUP1 ISZERO PUSH2 0x10 JUMPI PUSH1 0x0 DUP1 REVERT JUMPDEST POP PUSH1 0x4 CALLDATASIZE LT PUSH2 0x41 JUMPI PUSH1 0x0 CALLDATALOAD PUSH1 0xE0 SHR DUP1 PUSH4 0x81F539FF EQ PUSH2 0x46 JUMPI DUP1 PUSH4 0x9F0010FC EQ PUSH2 0x64 JUMPI DUP1 PUSH4 0x9F999DA3 EQ PUSH2 0x80 JUMPI JUMPDEST PUSH1 0x0 DUP1 REVERT JUMPDEST PUSH2 0x4E PUSH2 0x9E JUMP JUMPDEST PUSH1 0x40 MLOAD PUSH2 0x5B SWAP2 SWAP1 PUSH2 0xA1E JUMP JUMPDEST PUSH1 0x40 MLOAD DUP1 SWAP2 SUB SWAP1 RETURN JUMPDEST PUSH2 0x7E PUSH1 0x4 DUP1 CALLDATASIZE SUB DUP2 ADD SWAP1 PUSH2 0x79 SWAP2 SWAP1 PUSH2 0xAC8 JUMP JUMPDEST PUSH2 0x378 JUMP JUMPDEST STOP JUMPDEST PUSH2 0x88 PUSH2 0x51A JUMP JUMPDEST PUSH1 0x40 MLOAD PUSH2 0x95 SWAP2 SWAP1 PUSH2 0xB4C JUMP JUMPDEST PUSH1 0x40 MLOAD DUP1 SWAP2 SUB SWAP1 RETURN JUMPDEST PUSH2 0xA6 PUSH2 0x904 JUMP JUMPDEST PUSH1 0x1 PUSH1 0x4 PUSH1 0x0 SWAP1 SLOAD SWAP1 PUSH2 0x100 EXP SWAP1 DIV PUSH20 0xFFFFFFFFFFFFFFFFFFFFFFFFFFFFFFFFFFFFFFFF AND PUSH20 0xFFFFFFFFFFFFFFFFFFFFFFFFFFFFFFFFFFFFFFFF AND CALLER PUSH20 0xFFFFFFFFFFFFFFFFFFFFFFFFFFFFFFFFFFFFFFFF AND EQ DUP1 PUSH2 0x14D JUMPI POP PUSH1 0x6 PUSH1 0x0 CALLER PUSH20 0xFFFFFFFFFFFFFFFFFFFFFFFFFFFFFFFFFFFFFFFF AND PUSH20 0xFFFFFFFFFFFFFFFFFFFFFFFFFFFFFFFFFFFFFFFF AND DUP2 MSTORE PUSH1 0x20 ADD SWAP1 DUP2 MSTORE PUSH1 0x20 ADD PUSH1 0x0 KECCAK256 PUSH1 0x0 SWAP1 SLOAD SWAP1 PUSH2 0x100 EXP SWAP1 DIV PUSH1 0xFF AND JUMPDEST ISZERO PUSH2 0x202 JUMPI PUSH1 0x2 PUSH1 0x40 MLOAD DUP1 PUSH1 0x40 ADD PUSH1 0x40 MSTORE SWAP1 DUP2 PUSH1 0x0 DUP3 ADD SLOAD DUP2 MSTORE PUSH1 0x20 ADD PUSH1 0x1 DUP3 ADD DUP1 SLOAD PUSH2 0x179 SWAP1 PUSH2 0xB9D JUMP JUMPDEST DUP1 PUSH1 0x1F ADD PUSH1 0x20 DUP1 SWAP2 DIV MUL PUSH1 0x20 ADD PUSH1 0x40 MLOAD SWAP1 DUP2 ADD PUSH1 0x40 MSTORE DUP1 SWAP3 SWAP2 SWAP1 DUP2 DUP2 MSTORE PUSH1 0x20 ADD DUP3 DUP1 SLOAD PUSH2 0x1A5 SWAP1 PUSH2 0xB9D JUMP JUMPDEST DUP1 ISZERO PUSH2 0x1F2 JUMPI DUP1 PUSH1 0x1F LT PUSH2 0x1C7 JUMPI PUSH2 0x100 DUP1 DUP4 SLOAD DIV MUL DUP4 MSTORE SWAP2 PUSH1 0x20 ADD SWAP2 PUSH2 0x1F2 JUMP JUMPDEST DUP3 ADD SWAP2 SWAP1 PUSH1 0x0 MSTORE PUSH1 0x20 PUSH1 0x0 KECCAK256 SWAP1 JUMPDEST DUP2 SLOAD DUP2 MSTORE SWAP1 PUSH1 0x1 ADD SWAP1 PUSH1 0x20 ADD DUP1 DUP4 GT PUSH2 0x1D5 JUMPI DUP3 SWAP1 SUB PUSH1 0x1F AND DUP3 ADD SWAP2 JUMPDEST POP POP POP POP POP DUP2 MSTORE POP POP SWAP2 POP PUSH2 0x374 JUMP JUMPDEST PUSH1 0x0 PUSH1 0x1 DUP2 GT ISZERO PUSH2 0x216 JUMPI PUSH2 0x215 PUSH2 0xBCE JUMP JUMPDEST JUMPDEST DUP2 PUSH1 0x1 DUP2 GT ISZERO PUSH2 0x229 JUMPI PUSH2 0x228 PUSH2 0xBCE JUMP JUMPDEST JUMPDEST EQ DUP1 ISZERO PUSH2 0x27F JUMPI POP PUSH1 0x5 PUSH1 0x0 CALLER PUSH20 0xFFFFFFFFFFFFFFFFFFFFFFFFFFFFFFFFFFFFFFFF AND PUSH20 0xFFFFFFFFFFFFFFFFFFFFFFFFFFFFFFFFFFFFFFFF AND DUP2 MSTORE PUSH1 0x20 ADD SWAP1 DUP2 MSTORE PUSH1 0x20 ADD PUSH1 0x0 KECCAK256 PUSH1 0x0 SWAP1 SLOAD SWAP1 PUSH2 0x100 EXP SWAP1 DIV PUSH1 0xFF AND JUMPDEST ISZERO PUSH2 0x334 JUMPI PUSH1 0x2 PUSH1 0x40 MLOAD DUP1 PUSH1 0x40 ADD PUSH1 0x40 MSTORE SWAP1 DUP2 PUSH1 0x0 DUP3 ADD SLOAD DUP2 MSTORE PUSH1 0x20 ADD PUSH1 0x1 DUP3 ADD DUP1 SLOAD PUSH2 0x2AB SWAP1 PUSH2 0xB9D JUMP JUMPDEST DUP1 PUSH1 0x1F ADD PUSH1 0x20 DUP1 SWAP2 DIV MUL PUSH1 0x20 ADD PUSH1 0x40 MLOAD SWAP1 DUP2 ADD PUSH1 0x40 MSTORE DUP1 SWAP3 SWAP2 SWAP1 DUP2 DUP2 MSTORE PUSH1 0x20 ADD DUP3 DUP1 SLOAD PUSH2 0x2D7 SWAP1 PUSH2 0xB9D JUMP JUMPDEST DUP1 ISZERO PUSH2 0x324 JUMPI DUP1 PUSH1 0x1F LT PUSH2 0x2F9 JUMPI PUSH2 0x100 DUP1 DUP4 SLOAD DIV MUL DUP4 MSTORE SWAP2 PUSH1 0x20 ADD SWAP2 PUSH2 0x324 JUMP JUMPDEST DUP3 ADD SWAP2 SWAP1 PUSH1 0x0 MSTORE PUSH1 0x20 PUSH1 0x0 KECCAK256 SWAP1 JUMPDEST DUP2 SLOAD DUP2 MSTORE SWAP1 PUSH1 0x1 ADD SWAP1 PUSH1 0x20 ADD DUP1 DUP4 GT PUSH2 0x307 JUMPI DUP3 SWAP1 SUB PUSH1 0x1F AND DUP3 ADD SWAP2 JUMPDEST POP POP POP POP POP DUP2 MSTORE POP POP SWAP2 POP PUSH2 0x373 JUMP JUMPDEST CALLER DUP2 PUSH1 0x40 MLOAD PUSH32 0x301D703B00000000000000000000000000000000000000000000000000000000 DUP2 MSTORE PUSH1 0x4 ADD PUSH2 0x36A SWAP3 SWAP2 SWAP1 PUSH2 0xC54 JUMP JUMPDEST PUSH1 0x40 MLOAD DUP1 SWAP2 SUB SWAP1 REVERT JUMPDEST JUMPDEST POP SWAP1 JUMP JUMPDEST PUSH1 0x4 PUSH1 0x0 SWAP1 SLOAD SWAP1 PUSH2 0x100 EXP SWAP1 DIV PUSH20 0xFFFFFFFFFFFFFFFFFFFFFFFFFFFFFFFFFFFFFFFF AND PUSH20 0xFFFFFFFFFFFFFFFFFFFFFFFFFFFFFFFFFFFFFFFF AND CALLER PUSH20 0xFFFFFFFFFFFFFFFFFFFFFFFFFFFFFFFFFFFFFFFF AND EQ PUSH2 0x408 JUMPI PUSH1 0x40 MLOAD PUSH32 0x8C379A000000000000000000000000000000000000000000000000000000000 DUP2 MSTORE PUSH1 0x4 ADD PUSH2 0x3FF SWAP1 PUSH2 0xCDA JUMP JUMPDEST PUSH1 0x40 MLOAD DUP1 SWAP2 SUB SWAP1 REVERT JUMPDEST PUSH1 0x0 PUSH1 0x1 DUP2 GT ISZERO PUSH2 0x41C JUMPI PUSH2 0x41B PUSH2 0xBCE JUMP JUMPDEST JUMPDEST DUP3 PUSH1 0x1 DUP2 GT ISZERO PUSH2 0x42F JUMPI PUSH2 0x42E PUSH2 0xBCE JUMP JUMPDEST JUMPDEST SUB PUSH2 0x491 JUMPI PUSH1 0x1 PUSH1 0x5 PUSH1 0x0 DUP4 PUSH20 0xFFFFFFFFFFFFFFFFFFFFFFFFFFFFFFFFFFFFFFFF AND PUSH20 0xFFFFFFFFFFFFFFFFFFFFFFFFFFFFFFFFFFFFFFFF AND DUP2 MSTORE PUSH1 0x20 ADD SWAP1 DUP2 MSTORE PUSH1 0x20 ADD PUSH1 0x0 KECCAK256 PUSH1 0x0 PUSH2 0x100 EXP DUP2 SLOAD DUP2 PUSH1 0xFF MUL NOT AND SWAP1 DUP4 ISZERO ISZERO MUL OR SWAP1 SSTORE POP PUSH2 0x516 JUMP JUMPDEST PUSH1 0x1 DUP1 DUP2 GT ISZERO PUSH2 0x4A4 JUMPI PUSH2 0x4A3 PUSH2 0xBCE JUMP JUMPDEST JUMPDEST DUP3 PUSH1 0x1 DUP2 GT ISZERO PUSH2 0x4B7 JUMPI PUSH2 0x4B6 PUSH2 0xBCE JUMP JUMPDEST JUMPDEST SUB PUSH2 0x515 JUMPI PUSH1 0x1 PUSH1 0x6 PUSH1 0x0 DUP4 PUSH20 0xFFFFFFFFFFFFFFFFFFFFFFFFFFFFFFFFFFFFFFFF AND PUSH20 0xFFFFFFFFFFFFFFFFFFFFFFFFFFFFFFFFFFFFFFFF AND DUP2 MSTORE PUSH1 0x20 ADD SWAP1 DUP2 MSTORE PUSH1 0x20 ADD PUSH1 0x0 KECCAK256 PUSH1 0x0 PUSH2 0x100 EXP DUP2 SLOAD DUP2 PUSH1 0xFF MUL NOT AND SWAP1 DUP4 ISZERO ISZERO MUL OR SWAP1 SSTORE POP JUMPDEST JUMPDEST POP POP JUMP JUMPDEST PUSH2 0x522 PUSH2 0x91E JUMP JUMPDEST PUSH1 0x0 PUSH1 0x4 PUSH1 0x0 SWAP1 SLOAD SWAP1 PUSH2 0x100 EXP SWAP1 DIV PUSH20 0xFFFFFFFFFFFFFFFFFFFFFFFFFFFFFFFFFFFFFFFF AND PUSH20 0xFFFFFFFFFFFFFFFFFFFFFFFFFFFFFFFFFFFFFFFF AND CALLER PUSH20 0xFFFFFFFFFFFFFFFFFFFFFFFFFFFFFFFFFFFFFFFF AND EQ DUP1 PUSH2 0x5C9 JUMPI POP PUSH1 0x6 PUSH1 0x0 CALLER PUSH20 0xFFFFFFFFFFFFFFFFFFFFFFFFFFFFFFFFFFFFFFFF AND PUSH20 0xFFFFFFFFFFFFFFFFFFFFFFFFFFFFFFFFFFFFFFFF AND DUP2 MSTORE PUSH1 0x20 ADD SWAP1 DUP2 MSTORE PUSH1 0x20 ADD PUSH1 0x0 KECCAK256 PUSH1 0x0 SWAP1 SLOAD SWAP1 PUSH2 0x100 EXP SWAP1 DIV PUSH1 0xFF AND JUMPDEST ISZERO PUSH2 0x706 JUMPI PUSH1 0x0 PUSH1 0x40 MLOAD DUP1 PUSH1 0x40 ADD PUSH1 0x40 MSTORE SWAP1 DUP2 PUSH1 0x0 DUP3 ADD DUP1 SLOAD PUSH2 0x5EB SWAP1 PUSH2 0xB9D JUMP JUMPDEST DUP1 PUSH1 0x1F ADD PUSH1 0x20 DUP1 SWAP2 DIV MUL PUSH1 0x20 ADD PUSH1 0x40 MLOAD SWAP1 DUP2 ADD PUSH1 0x40 MSTORE DUP1 SWAP3 SWAP2 SWAP1 DUP2 DUP2 MSTORE PUSH1 0x20 ADD DUP3 DUP1 SLOAD PUSH2 0x617 SWAP1 PUSH2 0xB9D JUMP JUMPDEST DUP1 ISZERO PUSH2 0x664 JUMPI DUP1 PUSH1 0x1F LT PUSH2 0x639 JUMPI PUSH2 0x100 DUP1 DUP4 SLOAD DIV MUL DUP4 MSTORE SWAP2 PUSH1 0x20 ADD SWAP2 PUSH2 0x664 JUMP JUMPDEST DUP3 ADD SWAP2 SWAP1 PUSH1 0x0 MSTORE PUSH1 0x20 PUSH1 0x0 KECCAK256 SWAP1 JUMPDEST DUP2 SLOAD DUP2 MSTORE SWAP1 PUSH1 0x1 ADD SWAP1 PUSH1 0x20 ADD DUP1 DUP4 GT PUSH2 0x647 JUMPI DUP3 SWAP1 SUB PUSH1 0x1F AND DUP3 ADD SWAP2 JUMPDEST POP POP POP POP POP DUP2 MSTORE PUSH1 0x20 ADD PUSH1 0x1 DUP3 ADD DUP1 SLOAD PUSH2 0x67D SWAP1 PUSH2 0xB9D JUMP JUMPDEST DUP1 PUSH1 0x1F ADD PUSH1 0x20 DUP1 SWAP2 DIV MUL PUSH1 0x20 ADD PUSH1 0x40 MLOAD SWAP1 DUP2 ADD PUSH1 0x40 MSTORE DUP1 SWAP3 SWAP2 SWAP1 DUP2 DUP2 MSTORE PUSH1 0x20 ADD DUP3 DUP1 SLOAD PUSH2 0x6A9 SWAP1 PUSH2 0xB9D JUMP JUMPDEST DUP1 ISZERO PUSH2 0x6F6 JUMPI DUP1 PUSH1 0x1F LT PUSH2 0x6CB JUMPI PUSH2 0x100 DUP1 DUP4 SLOAD DIV MUL DUP4 MSTORE SWAP2 PUSH1 0x20 ADD SWAP2 PUSH2 0x6F6 JUMP JUMPDEST DUP3 ADD SWAP2 SWAP1 PUSH1 0x0 MSTORE PUSH1 0x20 PUSH1 0x0 KECCAK256 SWAP1 JUMPDEST DUP2 SLOAD DUP2 MSTORE SWAP1 PUSH1 0x1 ADD SWAP1 PUSH1 0x20 ADD DUP1 DUP4 GT PUSH2 0x6D9 JUMPI DUP3 SWAP1 SUB PUSH1 0x1F AND DUP3 ADD SWAP2 JUMPDEST POP POP POP POP POP DUP2 MSTORE POP POP SWAP2 POP PUSH2 0x900 JUMP JUMPDEST PUSH1 0x0 PUSH1 0x1 DUP2 GT ISZERO PUSH2 0x71A JUMPI PUSH2 0x719 PUSH2 0xBCE JUMP JUMPDEST JUMPDEST DUP2 PUSH1 0x1 DUP2 GT ISZERO PUSH2 0x72D JUMPI PUSH2 0x72C PUSH2 0xBCE JUMP JUMPDEST JUMPDEST EQ DUP1 ISZERO PUSH2 0x783 JUMPI POP PUSH1 0x5 PUSH1 0x0 CALLER PUSH20 0xFFFFFFFFFFFFFFFFFFFFFFFFFFFFFFFFFFFFFFFF AND PUSH20 0xFFFFFFFFFFFFFFFFFFFFFFFFFFFFFFFFFFFFFFFF AND DUP2 MSTORE PUSH1 0x20 ADD SWAP1 DUP2 MSTORE PUSH1 0x20 ADD PUSH1 0x0 KECCAK256 PUSH1 0x0 SWAP1 SLOAD SWAP1 PUSH2 0x100 EXP SWAP1 DIV PUSH1 0xFF AND JUMPDEST ISZERO PUSH2 0x8C0 JUMPI PUSH1 0x0 PUSH1 0x40 MLOAD DUP1 PUSH1 0x40 ADD PUSH1 0x40 MSTORE SWAP1 DUP2 PUSH1 0x0 DUP3 ADD DUP1 SLOAD PUSH2 0x7A5 SWAP1 PUSH2 0xB9D JUMP JUMPDEST DUP1 PUSH1 0x1F ADD PUSH1 0x20 DUP1 SWAP2 DIV MUL PUSH1 0x20 ADD PUSH1 0x40 MLOAD SWAP1 DUP2 ADD PUSH1 0x40 MSTORE DUP1 SWAP3 SWAP2 SWAP1 DUP2 DUP2 MSTORE PUSH1 0x20 ADD DUP3 DUP1 SLOAD PUSH2 0x7D1 SWAP1 PUSH2 0xB9D JUMP JUMPDEST DUP1 ISZERO PUSH2 0x81E JUMPI DUP1 PUSH1 0x1F LT PUSH2 0x7F3 JUMPI PUSH2 0x100 DUP1 DUP4 SLOAD DIV MUL DUP4 MSTORE SWAP2 PUSH1 0x20 ADD SWAP2 PUSH2 0x81E JUMP JUMPDEST DUP3 ADD SWAP2 SWAP1 PUSH1 0x0 MSTORE PUSH1 0x20 PUSH1 0x0 KECCAK256 SWAP1 JUMPDEST DUP2 SLOAD DUP2 MSTORE SWAP1 PUSH1 0x1 ADD SWAP1 PUSH1 0x20 ADD DUP1 DUP4 GT PUSH2 0x801 JUMPI DUP3 SWAP1 SUB PUSH1 0x1F AND DUP3 ADD SWAP2 JUMPDEST POP POP POP POP POP DUP2 MSTORE PUSH1 0x20 ADD PUSH1 0x1 DUP3 ADD DUP1 SLOAD PUSH2 0x837 SWAP1 PUSH2 0xB9D JUMP JUMPDEST DUP1 PUSH1 0x1F ADD PUSH1 0x20 DUP1 SWAP2 DIV MUL PUSH1 0x20 ADD PUSH1 0x40 MLOAD SWAP1 DUP2 ADD PUSH1 0x40 MSTORE DUP1 SWAP3 SWAP2 SWAP1 DUP2 DUP2 MSTORE PUSH1 0x20 ADD DUP3 DUP1 SLOAD PUSH2 0x863 SWAP1 PUSH2 0xB9D JUMP JUMPDEST DUP1 ISZERO PUSH2 0x8B0 JUMPI DUP1 PUSH1 0x1F LT PUSH2 0x885 JUMPI PUSH2 0x100 DUP1 DUP4 SLOAD DIV MUL DUP4 MSTORE SWAP2 PUSH1 0x20 ADD SWAP2 PUSH2 0x8B0 JUMP JUMPDEST DUP3 ADD SWAP2 SWAP1 PUSH1 0x0 MSTORE PUSH1 0x20 PUSH1 0x0 KECCAK256 SWAP1 JUMPDEST DUP2 SLOAD DUP2 MSTORE SWAP1 PUSH1 0x1 ADD SWAP1 PUSH1 0x20 ADD DUP1 DUP4 GT PUSH2 0x893 JUMPI DUP3 SWAP1 SUB PUSH1 0x1F AND DUP3 ADD SWAP2 JUMPDEST POP POP POP POP POP DUP2 MSTORE POP POP SWAP2 POP PUSH2 0x8FF JUMP JUMPDEST CALLER DUP2 PUSH1 0x40 MLOAD PUSH32 0x301D703B00000000000000000000000000000000000000000000000000000000 DUP2 MSTORE PUSH1 0x4 ADD PUSH2 0x8F6 SWAP3 SWAP2 SWAP1 PUSH2 0xC54 JUMP JUMPDEST PUSH1 0x40 MLOAD DUP1 SWAP2 SUB SWAP1 REVERT JUMPDEST JUMPDEST POP SWAP1 JUMP JUMPDEST PUSH1 0x40 MLOAD DUP1 PUSH1 0x40 ADD PUSH1 0x40 MSTORE DUP1 PUSH1 0x0 DUP2 MSTORE PUSH1 0x20 ADD PUSH1 0x60 DUP2 MSTORE POP SWAP1 JUMP JUMPDEST PUSH1 0x40 MLOAD DUP1 PUSH1 0x40 ADD PUSH1 0x40 MSTORE DUP1 PUSH1 0x60 DUP2 MSTORE PUSH1 0x20 ADD PUSH1 0x60 DUP2 MSTORE POP SWAP1 JUMP JUMPDEST PUSH1 0x0 DUP2 SWAP1 POP SWAP2 SWAP1 POP JUMP JUMPDEST PUSH2 0x94B DUP2 PUSH2 0x938 JUMP JUMPDEST DUP3 MSTORE POP POP JUMP JUMPDEST PUSH1 0x0 DUP2 MLOAD SWAP1 POP SWAP2 SWAP1 POP JUMP JUMPDEST PUSH1 0x0 DUP3 DUP3 MSTORE PUSH1 0x20 DUP3 ADD SWAP1 POP SWAP3 SWAP2 POP POP JUMP JUMPDEST PUSH1 0x0 JUMPDEST DUP4 DUP2 LT ISZERO PUSH2 0x98B JUMPI DUP1 DUP3 ADD MLOAD DUP2 DUP5 ADD MSTORE PUSH1 0x20 DUP2 ADD SWAP1 POP PUSH2 0x970 JUMP JUMPDEST PUSH1 0x0 DUP5 DUP5 ADD MSTORE POP POP POP POP JUMP JUMPDEST PUSH1 0x0 PUSH1 0x1F NOT PUSH1 0x1F DUP4 ADD AND SWAP1 POP SWAP2 SWAP1 POP JUMP JUMPDEST PUSH1 0x0 PUSH2 0x9B3 DUP3 PUSH2 0x951 JUMP JUMPDEST PUSH2 0x9BD DUP2 DUP6 PUSH2 0x95C JUMP JUMPDEST SWAP4 POP PUSH2 0x9CD DUP2 DUP6 PUSH1 0x20 DUP7 ADD PUSH2 0x96D JUMP JUMPDEST PUSH2 0x9D6 DUP2 PUSH2 0x997 JUMP JUMPDEST DUP5 ADD SWAP2 POP POP SWAP3 SWAP2 POP POP JUMP JUMPDEST PUSH1 0x0 PUSH1 0x40 DUP4 ADD PUSH1 0x0 DUP4 ADD MLOAD PUSH2 0x9F9 PUSH1 0x0 DUP7 ADD DUP3 PUSH2 0x942 JUMP JUMPDEST POP PUSH1 0x20 DUP4 ADD MLOAD DUP5 DUP3 SUB PUSH1 0x20 DUP7 ADD MSTORE PUSH2 0xA11 DUP3 DUP3 PUSH2 0x9A8 JUMP JUMPDEST SWAP2 POP POP DUP1 SWAP2 POP POP SWAP3 SWAP2 POP POP JUMP JUMPDEST PUSH1 0x0 PUSH1 0x20 DUP3 ADD SWAP1 POP DUP2 DUP2 SUB PUSH1 0x0 DUP4 ADD MSTORE PUSH2 0xA38 DUP2 DUP5 PUSH2 0x9E1 JUMP JUMPDEST SWAP1 POP SWAP3 SWAP2 POP POP JUMP JUMPDEST PUSH1 0x0 DUP1 REVERT JUMPDEST PUSH1 0x2 DUP2 LT PUSH2 0xA52 JUMPI PUSH1 0x0 DUP1 REVERT JUMPDEST POP JUMP JUMPDEST PUSH1 0x0 DUP2 CALLDATALOAD SWAP1 POP PUSH2 0xA64 DUP2 PUSH2 0xA45 JUMP JUMPDEST SWAP3 SWAP2 POP POP JUMP JUMPDEST PUSH1 0x0 PUSH20 0xFFFFFFFFFFFFFFFFFFFFFFFFFFFFFFFFFFFFFFFF DUP3 AND SWAP1 POP SWAP2 SWAP1 POP JUMP JUMPDEST PUSH1 0x0 PUSH2 0xA95 DUP3 PUSH2 0xA6A JUMP JUMPDEST SWAP1 POP SWAP2 SWAP1 POP JUMP JUMPDEST PUSH2 0xAA5 DUP2 PUSH2 0xA8A JUMP JUMPDEST DUP2 EQ PUSH2 0xAB0 JUMPI PUSH1 0x0 DUP1 REVERT JUMPDEST POP JUMP JUMPDEST PUSH1 0x0 DUP2 CALLDATALOAD SWAP1 POP PUSH2 0xAC2 DUP2 PUSH2 0xA9C JUMP JUMPDEST SWAP3 SWAP2 POP POP JUMP JUMPDEST PUSH1 0x0 DUP1 PUSH1 0x40 DUP4 DUP6 SUB SLT ISZERO PUSH2 0xADF JUMPI PUSH2 0xADE PUSH2 0xA40 JUMP JUMPDEST JUMPDEST PUSH1 0x0 PUSH2 0xAED DUP6 DUP3 DUP7 ADD PUSH2 0xA55 JUMP JUMPDEST SWAP3 POP POP PUSH1 0x20 PUSH2 0xAFE DUP6 DUP3 DUP7 ADD PUSH2 0xAB3 JUMP JUMPDEST SWAP2 POP POP SWAP3 POP SWAP3 SWAP1 POP JUMP JUMPDEST PUSH1 0x0 PUSH1 0x40 DUP4 ADD PUSH1 0x0 DUP4 ADD MLOAD DUP5 DUP3 SUB PUSH1 0x0 DUP7 ADD MSTORE PUSH2 0xB25 DUP3 DUP3 PUSH2 0x9A8 JUMP JUMPDEST SWAP2 POP POP PUSH1 0x20 DUP4 ADD MLOAD DUP5 DUP3 SUB PUSH1 0x20 DUP7 ADD MSTORE PUSH2 0xB3F DUP3 DUP3 PUSH2 0x9A8 JUMP JUMPDEST SWAP2 POP POP DUP1 SWAP2 POP POP SWAP3 SWAP2 POP POP JUMP JUMPDEST PUSH1 0x0 PUSH1 0x20 DUP3 ADD SWAP1 POP DUP2 DUP2 SUB PUSH1 0x0 DUP4 ADD MSTORE PUSH2 0xB66 DUP2 DUP5 PUSH2 0xB08 JUMP JUMPDEST SWAP1 POP SWAP3 SWAP2 POP POP JUMP JUMPDEST PUSH32 0x4E487B7100000000000000000000000000000000000000000000000000000000 PUSH1 0x0 MSTORE PUSH1 0x22 PUSH1 0x4 MSTORE PUSH1 0x24 PUSH1 0x0 REVERT JUMPDEST PUSH1 0x0 PUSH1 0x2 DUP3 DIV SWAP1 POP PUSH1 0x1 DUP3 AND DUP1 PUSH2 0xBB5 JUMPI PUSH1 0x7F DUP3 AND SWAP2 POP JUMPDEST PUSH1 0x20 DUP3 LT DUP2 SUB PUSH2 0xBC8 JUMPI PUSH2 0xBC7 PUSH2 0xB6E JUMP JUMPDEST JUMPDEST POP SWAP2 SWAP1 POP JUMP JUMPDEST PUSH32 0x4E487B7100000000000000000000000000000000000000000000000000000000 PUSH1 0x0 MSTORE PUSH1 0x21 PUSH1 0x4 MSTORE PUSH1 0x24 PUSH1 0x0 REVERT JUMPDEST PUSH2 0xC06 DUP2 PUSH2 0xA8A JUMP JUMPDEST DUP3 MSTORE POP POP JUMP JUMPDEST PUSH1 0x2 DUP2 LT PUSH2 0xC1D JUMPI PUSH2 0xC1C PUSH2 0xBCE JUMP JUMPDEST JUMPDEST POP JUMP JUMPDEST PUSH1 0x0 DUP2 SWAP1 POP PUSH2 0xC2E DUP3 PUSH2 0xC0C JUMP JUMPDEST SWAP2 SWAP1 POP JUMP JUMPDEST PUSH1 0x0 PUSH2 0xC3E DUP3 PUSH2 0xC20 JUMP JUMPDEST SWAP1 POP SWAP2 SWAP1 POP JUMP JUMPDEST PUSH2 0xC4E DUP2 PUSH2 0xC33 JUMP JUMPDEST DUP3 MSTORE POP POP JUMP JUMPDEST PUSH1 0x0 PUSH1 0x40 DUP3 ADD SWAP1 POP PUSH2 0xC69 PUSH1 0x0 DUP4 ADD DUP6 PUSH2 0xBFD JUMP JUMPDEST PUSH2 0xC76 PUSH1 0x20 DUP4 ADD DUP5 PUSH2 0xC45 JUMP JUMPDEST SWAP4 SWAP3 POP POP POP JUMP JUMPDEST PUSH1 0x0 DUP3 DUP3 MSTORE PUSH1 0x20 DUP3 ADD SWAP1 POP SWAP3 SWAP2 POP POP JUMP JUMPDEST PUSH32 0x4F6E6C79206F776E65722063616E20617574686F72697A652075736572730000 PUSH1 0x0 DUP3 ADD MSTORE POP JUMP JUMPDEST PUSH1 0x0 PUSH2 0xCC4 PUSH1 0x1E DUP4 PUSH2 0xC7D JUMP JUMPDEST SWAP2 POP PUSH2 0xCCF DUP3 PUSH2 0xC8E JUMP JUMPDEST PUSH1 0x20 DUP3 ADD SWAP1 POP SWAP2 SWAP1 POP JUMP JUMPDEST PUSH1 0x0 PUSH1 0x20 DUP3 ADD SWAP1 POP DUP2 DUP2 SUB PUSH1 0x0 DUP4 ADD MSTORE PUSH2 0xCF3 DUP2 PUSH2 0xCB7 JUMP JUMPDEST SWAP1 POP SWAP2 SWAP1 POP JUMP INVALID LOG2 PUSH5 0x6970667358 0x22 SLT KECCAK256 SLOAD 0xEE 0xAD 0x4B DELEGATECALL 0xF7 0xDB DUP6 0xE3 ISZERO 0xBF 0xEF SAR 0x24 MLOAD 0x5E 0x4A 0xB9 SELFBALANCE 0xAA 0xE6 0xBC 0x29 0x2F PUSH29 0x68AE1151ECC26664736F6C634300081200330000000000000000000000 "
				},
				"gasEstimates": {
					"creation": {
						"codeDepositCost": "675200",
						"executionCost": "infinite",
						"totalCost": "infinite"
					},
					"external": {
						"getBasicInfo()": "infinite",
						"getPersonalInfo()": "infinite",
						"registerUser(uint8,address)": "27263"
					}
				},
				"methodIdentifiers": {
					"getBasicInfo()": "9f999da3",
					"getPersonalInfo()": "81f539ff",
					"registerUser(uint8,address)": "9f0010fc"
				}
			},
			"storageLayout": {
				"storage": [
					{
						"astId": 24,
						"contract": "DigitalIdentity/Proposal/MyProfile.sol:Identity",
						"label": "basicInfo",
						"offset": 0,
						"slot": "0",
						"type": "t_struct(BasicInfo)6_storage"
					},
					{
						"astId": 27,
						"contract": "DigitalIdentity/Proposal/MyProfile.sol:Identity",
						"label": "personalInfo",
						"offset": 0,
						"slot": "2",
						"type": "t_struct(PersonalInfo)11_storage"
					},
					{
						"astId": 29,
						"contract": "DigitalIdentity/Proposal/MyProfile.sol:Identity",
						"label": "owner",
						"offset": 0,
						"slot": "4",
						"type": "t_address"
					},
					{
						"astId": 33,
						"contract": "DigitalIdentity/Proposal/MyProfile.sol:Identity",
						"label": "basicUsers",
						"offset": 0,
						"slot": "5",
						"type": "t_mapping(t_address,t_bool)"
					},
					{
						"astId": 37,
						"contract": "DigitalIdentity/Proposal/MyProfile.sol:Identity",
						"label": "personalUsers",
						"offset": 0,
						"slot": "6",
						"type": "t_mapping(t_address,t_bool)"
					}
				],
				"types": {
					"t_address": {
						"encoding": "inplace",
						"label": "address",
						"numberOfBytes": "20"
					},
					"t_bool": {
						"encoding": "inplace",
						"label": "bool",
						"numberOfBytes": "1"
					},
					"t_mapping(t_address,t_bool)": {
						"encoding": "mapping",
						"key": "t_address",
						"label": "mapping(address => bool)",
						"numberOfBytes": "32",
						"value": "t_bool"
					},
					"t_string_storage": {
						"encoding": "bytes",
						"label": "string",
						"numberOfBytes": "32"
					},
					"t_struct(BasicInfo)6_storage": {
						"encoding": "inplace",
						"label": "struct Identity.BasicInfo",
						"members": [
							{
								"astId": 3,
								"contract": "DigitalIdentity/Proposal/MyProfile.sol:Identity",
								"label": "name",
								"offset": 0,
								"slot": "0",
								"type": "t_string_storage"
							},
							{
								"astId": 5,
								"contract": "DigitalIdentity/Proposal/MyProfile.sol:Identity",
								"label": "email",
								"offset": 0,
								"slot": "1",
								"type": "t_string_storage"
							}
						],
						"numberOfBytes": "64"
					},
					"t_struct(PersonalInfo)11_storage": {
						"encoding": "inplace",
						"label": "struct Identity.PersonalInfo",
						"members": [
							{
								"astId": 8,
								"contract": "DigitalIdentity/Proposal/MyProfile.sol:Identity",
								"label": "salary",
								"offset": 0,
								"slot": "0",
								"type": "t_uint256"
							},
							{
								"astId": 10,
								"contract": "DigitalIdentity/Proposal/MyProfile.sol:Identity",
								"label": "_address",
								"offset": 0,
								"slot": "1",
								"type": "t_string_storage"
							}
						],
						"numberOfBytes": "64"
					},
					"t_uint256": {
						"encoding": "inplace",
						"label": "uint256",
						"numberOfBytes": "32"
					}
				}
			},
			"userdoc": {
				"kind": "user",
				"methods": {},
				"version": 1
			}
		}
	}
}